{
  "_format": "hh-sol-artifact-1",
  "contractName": "LoanNFT",
  "sourceName": "contracts/TokenTranche.sol",
  "abi": [
    {
      "inputs": [],
      "stateMutability": "nonpayable",
      "type": "constructor"
    },
    {
      "inputs": [
        {
          "internalType": "address",
          "name": "sender",
          "type": "address"
        },
        {
          "internalType": "uint256",
          "name": "tokenId",
          "type": "uint256"
        },
        {
          "internalType": "address",
          "name": "owner",
          "type": "address"
        }
      ],
      "name": "ERC721IncorrectOwner",
      "type": "error"
    },
    {
      "inputs": [
        {
          "internalType": "address",
          "name": "operator",
          "type": "address"
        },
        {
          "internalType": "uint256",
          "name": "tokenId",
          "type": "uint256"
        }
      ],
      "name": "ERC721InsufficientApproval",
      "type": "error"
    },
    {
      "inputs": [
        {
          "internalType": "address",
          "name": "approver",
          "type": "address"
        }
      ],
      "name": "ERC721InvalidApprover",
      "type": "error"
    },
    {
      "inputs": [
        {
          "internalType": "address",
          "name": "operator",
          "type": "address"
        }
      ],
      "name": "ERC721InvalidOperator",
      "type": "error"
    },
    {
      "inputs": [
        {
          "internalType": "address",
          "name": "owner",
          "type": "address"
        }
      ],
      "name": "ERC721InvalidOwner",
      "type": "error"
    },
    {
      "inputs": [
        {
          "internalType": "address",
          "name": "receiver",
          "type": "address"
        }
      ],
      "name": "ERC721InvalidReceiver",
      "type": "error"
    },
    {
      "inputs": [
        {
          "internalType": "address",
          "name": "sender",
          "type": "address"
        }
      ],
      "name": "ERC721InvalidSender",
      "type": "error"
    },
    {
      "inputs": [
        {
          "internalType": "uint256",
          "name": "tokenId",
          "type": "uint256"
        }
      ],
      "name": "ERC721NonexistentToken",
      "type": "error"
    },
    {
      "anonymous": false,
      "inputs": [
        {
          "indexed": true,
          "internalType": "address",
          "name": "owner",
          "type": "address"
        },
        {
          "indexed": true,
          "internalType": "address",
          "name": "approved",
          "type": "address"
        },
        {
          "indexed": true,
          "internalType": "uint256",
          "name": "tokenId",
          "type": "uint256"
        }
      ],
      "name": "Approval",
      "type": "event"
    },
    {
      "anonymous": false,
      "inputs": [
        {
          "indexed": true,
          "internalType": "address",
          "name": "owner",
          "type": "address"
        },
        {
          "indexed": true,
          "internalType": "address",
          "name": "operator",
          "type": "address"
        },
        {
          "indexed": false,
          "internalType": "bool",
          "name": "approved",
          "type": "bool"
        }
      ],
      "name": "ApprovalForAll",
      "type": "event"
    },
    {
      "anonymous": false,
      "inputs": [
        {
          "indexed": true,
          "internalType": "uint256",
          "name": "tokenId",
          "type": "uint256"
        },
        {
          "indexed": true,
          "internalType": "address",
          "name": "to",
          "type": "address"
        },
        {
          "indexed": false,
          "internalType": "uint256",
          "name": "principal",
          "type": "uint256"
        },
        {
          "indexed": false,
          "internalType": "uint16",
          "name": "interestRateBps",
          "type": "uint16"
        },
        {
          "indexed": false,
          "internalType": "uint64",
          "name": "maturityTimestamp",
          "type": "uint64"
        }
      ],
      "name": "LoanMinted",
      "type": "event"
    },
    {
      "anonymous": false,
      "inputs": [
        {
          "indexed": true,
          "internalType": "address",
          "name": "from",
          "type": "address"
        },
        {
          "indexed": true,
          "internalType": "address",
          "name": "to",
          "type": "address"
        },
        {
          "indexed": true,
          "internalType": "uint256",
          "name": "tokenId",
          "type": "uint256"
        }
      ],
      "name": "Transfer",
      "type": "event"
    },
    {
      "inputs": [],
      "name": "admin",
      "outputs": [
        {
          "internalType": "address",
          "name": "",
          "type": "address"
        }
      ],
      "stateMutability": "view",
      "type": "function"
    },
    {
      "inputs": [
        {
          "internalType": "address",
          "name": "to",
          "type": "address"
        },
        {
          "internalType": "uint256",
          "name": "tokenId",
          "type": "uint256"
        }
      ],
      "name": "approve",
      "outputs": [],
      "stateMutability": "nonpayable",
      "type": "function"
    },
    {
      "inputs": [
        {
          "internalType": "address",
          "name": "owner",
          "type": "address"
        }
      ],
      "name": "balanceOf",
      "outputs": [
        {
          "internalType": "uint256",
          "name": "",
          "type": "uint256"
        }
      ],
      "stateMutability": "view",
      "type": "function"
    },
    {
      "inputs": [
        {
          "internalType": "uint256",
          "name": "tokenId",
          "type": "uint256"
        }
      ],
      "name": "getApproved",
      "outputs": [
        {
          "internalType": "address",
          "name": "",
          "type": "address"
        }
      ],
      "stateMutability": "view",
      "type": "function"
    },
    {
      "inputs": [
        {
          "internalType": "uint256",
          "name": "tokenId",
          "type": "uint256"
        }
      ],
      "name": "getLoanData",
      "outputs": [
        {
          "components": [
            {
              "internalType": "uint256",
              "name": "principal",
              "type": "uint256"
            },
            {
              "internalType": "uint16",
              "name": "interestRateBps",
              "type": "uint16"
            },
            {
              "internalType": "uint64",
              "name": "maturityTimestamp",
              "type": "uint64"
            },
            {
              "internalType": "address",
              "name": "borrower",
              "type": "address"
            }
          ],
          "internalType": "struct LoanNFT.LoanData",
          "name": "",
          "type": "tuple"
        }
      ],
      "stateMutability": "view",
      "type": "function"
    },
    {
      "inputs": [
        {
          "internalType": "address",
          "name": "owner",
          "type": "address"
        },
        {
          "internalType": "address",
          "name": "operator",
          "type": "address"
        }
      ],
      "name": "isApprovedForAll",
      "outputs": [
        {
          "internalType": "bool",
          "name": "",
          "type": "bool"
        }
      ],
      "stateMutability": "view",
      "type": "function"
    },
    {
      "inputs": [
        {
          "internalType": "uint256",
          "name": "",
          "type": "uint256"
        }
      ],
      "name": "loanData",
      "outputs": [
        {
          "internalType": "uint256",
          "name": "principal",
          "type": "uint256"
        },
        {
          "internalType": "uint16",
          "name": "interestRateBps",
          "type": "uint16"
        },
        {
          "internalType": "uint64",
          "name": "maturityTimestamp",
          "type": "uint64"
        },
        {
          "internalType": "address",
          "name": "borrower",
          "type": "address"
        }
      ],
      "stateMutability": "view",
      "type": "function"
    },
    {
      "inputs": [
        {
          "internalType": "address",
          "name": "to",
          "type": "address"
        },
        {
          "internalType": "uint256",
          "name": "principal",
          "type": "uint256"
        },
        {
          "internalType": "uint16",
          "name": "interestRateBps",
          "type": "uint16"
        },
        {
          "internalType": "uint64",
          "name": "maturityTimestamp",
          "type": "uint64"
        }
      ],
      "name": "mint",
      "outputs": [
        {
          "internalType": "uint256",
          "name": "",
          "type": "uint256"
        }
      ],
      "stateMutability": "nonpayable",
      "type": "function"
    },
    {
      "inputs": [],
      "name": "name",
      "outputs": [
        {
          "internalType": "string",
          "name": "",
          "type": "string"
        }
      ],
      "stateMutability": "view",
      "type": "function"
    },
    {
      "inputs": [
        {
          "internalType": "uint256",
          "name": "tokenId",
          "type": "uint256"
        }
      ],
      "name": "ownerOf",
      "outputs": [
        {
          "internalType": "address",
          "name": "",
          "type": "address"
        }
      ],
      "stateMutability": "view",
      "type": "function"
    },
    {
      "inputs": [
        {
          "internalType": "address",
          "name": "from",
          "type": "address"
        },
        {
          "internalType": "address",
          "name": "to",
          "type": "address"
        },
        {
          "internalType": "uint256",
          "name": "tokenId",
          "type": "uint256"
        }
      ],
      "name": "safeTransferFrom",
      "outputs": [],
      "stateMutability": "nonpayable",
      "type": "function"
    },
    {
      "inputs": [
        {
          "internalType": "address",
          "name": "from",
          "type": "address"
        },
        {
          "internalType": "address",
          "name": "to",
          "type": "address"
        },
        {
          "internalType": "uint256",
          "name": "tokenId",
          "type": "uint256"
        },
        {
          "internalType": "bytes",
          "name": "data",
          "type": "bytes"
        }
      ],
      "name": "safeTransferFrom",
      "outputs": [],
      "stateMutability": "nonpayable",
      "type": "function"
    },
    {
      "inputs": [
        {
          "internalType": "address",
          "name": "operator",
          "type": "address"
        },
        {
          "internalType": "bool",
          "name": "approved",
          "type": "bool"
        }
      ],
      "name": "setApprovalForAll",
      "outputs": [],
      "stateMutability": "nonpayable",
      "type": "function"
    },
    {
      "inputs": [
        {
          "internalType": "bytes4",
          "name": "interfaceId",
          "type": "bytes4"
        }
      ],
      "name": "supportsInterface",
      "outputs": [
        {
          "internalType": "bool",
          "name": "",
          "type": "bool"
        }
      ],
      "stateMutability": "view",
      "type": "function"
    },
    {
      "inputs": [],
      "name": "symbol",
      "outputs": [
        {
          "internalType": "string",
          "name": "",
          "type": "string"
        }
      ],
      "stateMutability": "view",
      "type": "function"
    },
    {
      "inputs": [
        {
          "internalType": "uint256",
          "name": "tokenId",
          "type": "uint256"
        }
      ],
      "name": "tokenURI",
      "outputs": [
        {
          "internalType": "string",
          "name": "",
          "type": "string"
        }
      ],
      "stateMutability": "view",
      "type": "function"
    },
    {
      "inputs": [
        {
          "internalType": "address",
          "name": "from",
          "type": "address"
        },
        {
          "internalType": "address",
          "name": "to",
          "type": "address"
        },
        {
          "internalType": "uint256",
          "name": "tokenId",
          "type": "uint256"
        }
      ],
      "name": "transferFrom",
      "outputs": [],
      "stateMutability": "nonpayable",
      "type": "function"
    }
  ],
  "bytecode": "0x608060405234801561001057600080fd5b506040518060400160405280600781526020017f4c6f616e4e4654000000000000000000000000000000000000000000000000008152506040518060400160405280600481526020017f4c4e465400000000000000000000000000000000000000000000000000000000815250816000908161008c9190610335565b50806001908161009c9190610335565b50505033600760006101000a81548173ffffffffffffffffffffffffffffffffffffffff021916908373ffffffffffffffffffffffffffffffffffffffff160217905550610407565b600081519050919050565b7f4e487b7100000000000000000000000000000000000000000000000000000000600052604160045260246000fd5b7f4e487b7100000000000000000000000000000000000000000000000000000000600052602260045260246000fd5b6000600282049050600182168061016657607f821691505b6020821081036101795761017861011f565b5b50919050565b60008190508160005260206000209050919050565b60006020601f8301049050919050565b600082821b905092915050565b6000600883026101e17fffffffffffffffffffffffffffffffffffffffffffffffffffffffffffffffff826101a4565b6101eb86836101a4565b95508019841693508086168417925050509392505050565b6000819050919050565b6000819050919050565b600061023261022d61022884610203565b61020d565b610203565b9050919050565b6000819050919050565b61024c83610217565b61026061025882610239565b8484546101b1565b825550505050565b600090565b610275610268565b610280818484610243565b505050565b5b818110156102a45761029960008261026d565b600181019050610286565b5050565b601f8211156102e9576102ba8161017f565b6102c384610194565b810160208510156102d2578190505b6102e66102de85610194565b830182610285565b50505b505050565b600082821c905092915050565b600061030c600019846008026102ee565b1980831691505092915050565b600061032583836102fb565b9150826002028217905092915050565b61033e826100e5565b67ffffffffffffffff811115610357576103566100f0565b5b610361825461014e565b61036c8282856102a8565b600060209050601f83116001811461039f576000841561038d578287015190505b6103978582610319565b8655506103ff565b601f1984166103ad8661017f565b60005b828110156103d5578489015182556001820191506020850194506020810190506103b0565b868310156103f257848901516103ee601f8916826102fb565b8355505b6001600288020188555050505b505050505050565b61264c806104166000396000f3fe608060405234801561001057600080fd5b506004361061010b5760003560e01c80636352211e116100a2578063a22cb46511610071578063a22cb465146102f3578063b88d4fde1461030f578063c87b56dd1461032b578063e985e9c51461035b578063f851a4401461038b5761010b565b80636352211e1461024557806370a082311461027557806395d89b41146102a55780639a987566146102c35761010b565b8063224bb0b9116100de578063224bb0b9146101aa57806323b872dd146101dd57806342842e0e146101f9578063622fe39f146102155761010b565b806301ffc9a71461011057806306fdde0314610140578063081812fc1461015e578063095ea7b31461018e575b600080fd5b61012a60048036038101906101259190611afa565b6103a9565b6040516101379190611b42565b60405180910390f35b61014861048b565b6040516101559190611bed565b60405180910390f35b61017860048036038101906101739190611c45565b61051d565b6040516101859190611cb3565b60405180910390f35b6101a860048036038101906101a39190611cfa565b610539565b005b6101c460048036038101906101bf9190611c45565b61054f565b6040516101d49493929190611d89565b60405180910390f35b6101f760048036038101906101f29190611dce565b6105c1565b005b610213600480360381019061020e9190611dce565b6106c3565b005b61022f600480360381019061022a9190611c45565b6106e3565b60405161023c9190611eb2565b60405180910390f35b61025f600480360381019061025a9190611c45565b610839565b60405161026c9190611cb3565b60405180910390f35b61028f600480360381019061028a9190611ecd565b61084b565b60405161029c9190611efa565b60405180910390f35b6102ad610905565b6040516102ba9190611bed565b60405180910390f35b6102dd60048036038101906102d89190611f6d565b610997565b6040516102ea9190611efa565b60405180910390f35b61030d60048036038101906103089190612000565b610ba9565b005b61032960048036038101906103249190612175565b610bbf565b005b61034560048036038101906103409190611c45565b610be4565b6040516103529190611bed565b60405180910390f35b610375600480360381019061037091906121f8565b610c4d565b6040516103829190611b42565b60405180910390f35b610393610ce1565b6040516103a09190611cb3565b60405180910390f35b60007f80ac58cd000000000000000000000000000000000000000000000000000000007bffffffffffffffffffffffffffffffffffffffffffffffffffffffff1916827bffffffffffffffffffffffffffffffffffffffffffffffffffffffff1916148061047457507f5b5e139f000000000000000000000000000000000000000000000000000000007bffffffffffffffffffffffffffffffffffffffffffffffffffffffff1916827bffffffffffffffffffffffffffffffffffffffffffffffffffffffff1916145b80610484575061048382610d07565b5b9050919050565b60606000805461049a90612267565b80601f01602080910402602001604051908101604052809291908181526020018280546104c690612267565b80156105135780601f106104e857610100808354040283529160200191610513565b820191906000526020600020905b8154815290600101906020018083116104f657829003601f168201915b5050505050905090565b600061052882610d71565b5061053282610df9565b9050919050565b61054b8282610546610e36565b610e3e565b5050565b60086020528060005260406000206000915090508060000154908060010160009054906101000a900461ffff16908060010160029054906101000a900467ffffffffffffffff169080600101600a9054906101000a900473ffffffffffffffffffffffffffffffffffffffff16905084565b600073ffffffffffffffffffffffffffffffffffffffff168273ffffffffffffffffffffffffffffffffffffffff16036106335760006040517f64a0ae9200000000000000000000000000000000000000000000000000000000815260040161062a9190611cb3565b60405180910390fd5b60006106478383610642610e36565b610e50565b90508373ffffffffffffffffffffffffffffffffffffffff168173ffffffffffffffffffffffffffffffffffffffff16146106bd578382826040517f64283d7b0000000000000000000000000000000000000000000000000000000081526004016106b493929190612298565b60405180910390fd5b50505050565b6106de83838360405180602001604052806000815250610bbf565b505050565b6106eb611a42565b600073ffffffffffffffffffffffffffffffffffffffff1661070c83610839565b73ffffffffffffffffffffffffffffffffffffffff1603610762576040517f08c379a000000000000000000000000000000000000000000000000000000000815260040161075990612341565b60405180910390fd5b60086000838152602001908152602001600020604051806080016040529081600082015481526020016001820160009054906101000a900461ffff1661ffff1661ffff1681526020016001820160029054906101000a900467ffffffffffffffff1667ffffffffffffffff1667ffffffffffffffff16815260200160018201600a9054906101000a900473ffffffffffffffffffffffffffffffffffffffff1673ffffffffffffffffffffffffffffffffffffffff1673ffffffffffffffffffffffffffffffffffffffff16815250509050919050565b600061084482610d71565b9050919050565b60008073ffffffffffffffffffffffffffffffffffffffff168273ffffffffffffffffffffffffffffffffffffffff16036108be5760006040517f89c62b640000000000000000000000000000000000000000000000000000000081526004016108b59190611cb3565b60405180910390fd5b600360008373ffffffffffffffffffffffffffffffffffffffff1673ffffffffffffffffffffffffffffffffffffffff168152602001908152602001600020549050919050565b60606001805461091490612267565b80601f016020809104026020016040519081016040528092919081815260200182805461094090612267565b801561098d5780601f106109625761010080835404028352916020019161098d565b820191906000526020600020905b81548152906001019060200180831161097057829003601f168201915b5050505050905090565b6000600760009054906101000a900473ffffffffffffffffffffffffffffffffffffffff1673ffffffffffffffffffffffffffffffffffffffff163373ffffffffffffffffffffffffffffffffffffffff1614610a29576040517f08c379a0000000000000000000000000000000000000000000000000000000008152600401610a20906123ad565b60405180910390fd5b6000600660008154610a3a906123fc565b9190508190559050610a4c868261106a565b60405180608001604052808681526020018561ffff1681526020018467ffffffffffffffff1681526020018773ffffffffffffffffffffffffffffffffffffffff16815250600860008381526020019081526020016000206000820151816000015560208201518160010160006101000a81548161ffff021916908361ffff16021790555060408201518160010160026101000a81548167ffffffffffffffff021916908367ffffffffffffffff160217905550606082015181600101600a6101000a81548173ffffffffffffffffffffffffffffffffffffffff021916908373ffffffffffffffffffffffffffffffffffffffff1602179055509050508573ffffffffffffffffffffffffffffffffffffffff16817ff961c778aa8e618d3c5b97c94bca0695375ab578725641069c21e89e9dc5467e878787604051610b9593929190612444565b60405180910390a380915050949350505050565b610bbb610bb4610e36565b8383611163565b5050565b610bca8484846105c1565b610bde610bd5610e36565b858585856112d2565b50505050565b6060610bef82610d71565b506000610bfa611483565b90506000815111610c1a5760405180602001604052806000815250610c45565b80610c248461149a565b604051602001610c359291906124b7565b6040516020818303038152906040525b915050919050565b6000600560008473ffffffffffffffffffffffffffffffffffffffff1673ffffffffffffffffffffffffffffffffffffffff16815260200190815260200160002060008373ffffffffffffffffffffffffffffffffffffffff1673ffffffffffffffffffffffffffffffffffffffff16815260200190815260200160002060009054906101000a900460ff16905092915050565b600760009054906101000a900473ffffffffffffffffffffffffffffffffffffffff1681565b60007f01ffc9a7000000000000000000000000000000000000000000000000000000007bffffffffffffffffffffffffffffffffffffffffffffffffffffffff1916827bffffffffffffffffffffffffffffffffffffffffffffffffffffffff1916149050919050565b600080610d7d83611568565b9050600073ffffffffffffffffffffffffffffffffffffffff168173ffffffffffffffffffffffffffffffffffffffff1603610df057826040517f7e273289000000000000000000000000000000000000000000000000000000008152600401610de79190611efa565b60405180910390fd5b80915050919050565b60006004600083815260200190815260200160002060009054906101000a900473ffffffffffffffffffffffffffffffffffffffff169050919050565b600033905090565b610e4b83838360016115a5565b505050565b600080610e5c84611568565b9050600073ffffffffffffffffffffffffffffffffffffffff168373ffffffffffffffffffffffffffffffffffffffff1614610e9e57610e9d81848661176a565b5b600073ffffffffffffffffffffffffffffffffffffffff168173ffffffffffffffffffffffffffffffffffffffff1614610f2f57610ee06000856000806115a5565b6001600360008373ffffffffffffffffffffffffffffffffffffffff1673ffffffffffffffffffffffffffffffffffffffff168152602001908152602001600020600082825403925050819055505b600073ffffffffffffffffffffffffffffffffffffffff168573ffffffffffffffffffffffffffffffffffffffff1614610fb2576001600360008773ffffffffffffffffffffffffffffffffffffffff1673ffffffffffffffffffffffffffffffffffffffff168152602001908152602001600020600082825401925050819055505b846002600086815260200190815260200160002060006101000a81548173ffffffffffffffffffffffffffffffffffffffff021916908373ffffffffffffffffffffffffffffffffffffffff160217905550838573ffffffffffffffffffffffffffffffffffffffff168273ffffffffffffffffffffffffffffffffffffffff167fddf252ad1be2c89b69c2b068fc378daa952ba7f163c4a11628f55a4df523b3ef60405160405180910390a4809150509392505050565b600073ffffffffffffffffffffffffffffffffffffffff168273ffffffffffffffffffffffffffffffffffffffff16036110dc5760006040517f64a0ae920000000000000000000000000000000000000000000000000000000081526004016110d39190611cb3565b60405180910390fd5b60006110ea83836000610e50565b9050600073ffffffffffffffffffffffffffffffffffffffff168173ffffffffffffffffffffffffffffffffffffffff161461115e5760006040517f73c6ac6e0000000000000000000000000000000000000000000000000000000081526004016111559190611cb3565b60405180910390fd5b505050565b600073ffffffffffffffffffffffffffffffffffffffff168273ffffffffffffffffffffffffffffffffffffffff16036111d457816040517f5b08ba180000000000000000000000000000000000000000000000000000000081526004016111cb9190611cb3565b60405180910390fd5b80600560008573ffffffffffffffffffffffffffffffffffffffff1673ffffffffffffffffffffffffffffffffffffffff16815260200190815260200160002060008473ffffffffffffffffffffffffffffffffffffffff1673ffffffffffffffffffffffffffffffffffffffff16815260200190815260200160002060006101000a81548160ff0219169083151502179055508173ffffffffffffffffffffffffffffffffffffffff168373ffffffffffffffffffffffffffffffffffffffff167f17307eab39ab6107e8899845ad3d59bd9653f200f220920489ca2b5937696c31836040516112c59190611b42565b60405180910390a3505050565b60008373ffffffffffffffffffffffffffffffffffffffff163b111561147c578273ffffffffffffffffffffffffffffffffffffffff1663150b7a02868685856040518563ffffffff1660e01b81526004016113319493929190612530565b6020604051808303816000875af192505050801561136d57506040513d601f19601f8201168201806040525081019061136a9190612591565b60015b6113f1573d806000811461139d576040519150601f19603f3d011682016040523d82523d6000602084013e6113a2565b606091505b5060008151036113e957836040517f64a0ae920000000000000000000000000000000000000000000000000000000081526004016113e09190611cb3565b60405180910390fd5b805181602001fd5b63150b7a0260e01b7bffffffffffffffffffffffffffffffffffffffffffffffffffffffff1916817bffffffffffffffffffffffffffffffffffffffffffffffffffffffff19161461147a57836040517f64a0ae920000000000000000000000000000000000000000000000000000000081526004016114719190611cb3565b60405180910390fd5b505b5050505050565b606060405180602001604052806000815250905090565b6060600060016114a98461182e565b01905060008167ffffffffffffffff8111156114c8576114c761204a565b5b6040519080825280601f01601f1916602001820160405280156114fa5781602001600182028036833780820191505090505b509050600082602001820190505b60011561155d578080600190039150507f3031323334353637383961626364656600000000000000000000000000000000600a86061a8153600a8581611551576115506125be565b5b04945060008503611508575b819350505050919050565b60006002600083815260200190815260200160002060009054906101000a900473ffffffffffffffffffffffffffffffffffffffff169050919050565b80806115de5750600073ffffffffffffffffffffffffffffffffffffffff168273ffffffffffffffffffffffffffffffffffffffff1614155b156117125760006115ee84610d71565b9050600073ffffffffffffffffffffffffffffffffffffffff168373ffffffffffffffffffffffffffffffffffffffff161415801561165957508273ffffffffffffffffffffffffffffffffffffffff168173ffffffffffffffffffffffffffffffffffffffff1614155b801561166c575061166a8184610c4d565b155b156116ae57826040517fa9fbf51f0000000000000000000000000000000000000000000000000000000081526004016116a59190611cb3565b60405180910390fd5b811561171057838573ffffffffffffffffffffffffffffffffffffffff168273ffffffffffffffffffffffffffffffffffffffff167f8c5be1e5ebec7d5bd14f71427d1e84f3dd0314c0f7b2291e5b200ac8c7c3b92560405160405180910390a45b505b836004600085815260200190815260200160002060006101000a81548173ffffffffffffffffffffffffffffffffffffffff021916908373ffffffffffffffffffffffffffffffffffffffff16021790555050505050565b611775838383611981565b61182957600073ffffffffffffffffffffffffffffffffffffffff168373ffffffffffffffffffffffffffffffffffffffff16036117ea57806040517f7e2732890000000000000000000000000000000000000000000000000000000081526004016117e19190611efa565b60405180910390fd5b81816040517f177e802f0000000000000000000000000000000000000000000000000000000081526004016118209291906125ed565b60405180910390fd5b505050565b600080600090507a184f03e93ff9f4daa797ed6e38ed64bf6a1f010000000000000000831061188c577a184f03e93ff9f4daa797ed6e38ed64bf6a1f0100000000000000008381611882576118816125be565b5b0492506040810190505b6d04ee2d6d415b85acef810000000083106118c9576d04ee2d6d415b85acef810000000083816118bf576118be6125be565b5b0492506020810190505b662386f26fc1000083106118f857662386f26fc1000083816118ee576118ed6125be565b5b0492506010810190505b6305f5e1008310611921576305f5e1008381611917576119166125be565b5b0492506008810190505b612710831061194657612710838161193c5761193b6125be565b5b0492506004810190505b60648310611969576064838161195f5761195e6125be565b5b0492506002810190505b600a8310611978576001810190505b80915050919050565b60008073ffffffffffffffffffffffffffffffffffffffff168373ffffffffffffffffffffffffffffffffffffffff1614158015611a3957508273ffffffffffffffffffffffffffffffffffffffff168473ffffffffffffffffffffffffffffffffffffffff1614806119fa57506119f98484610c4d565b5b80611a3857508273ffffffffffffffffffffffffffffffffffffffff16611a2083610df9565b73ffffffffffffffffffffffffffffffffffffffff16145b5b90509392505050565b604051806080016040528060008152602001600061ffff168152602001600067ffffffffffffffff168152602001600073ffffffffffffffffffffffffffffffffffffffff1681525090565b6000604051905090565b600080fd5b600080fd5b60007fffffffff0000000000000000000000000000000000000000000000000000000082169050919050565b611ad781611aa2565b8114611ae257600080fd5b50565b600081359050611af481611ace565b92915050565b600060208284031215611b1057611b0f611a98565b5b6000611b1e84828501611ae5565b91505092915050565b60008115159050919050565b611b3c81611b27565b82525050565b6000602082019050611b576000830184611b33565b92915050565b600081519050919050565b600082825260208201905092915050565b60005b83811015611b97578082015181840152602081019050611b7c565b60008484015250505050565b6000601f19601f8301169050919050565b6000611bbf82611b5d565b611bc98185611b68565b9350611bd9818560208601611b79565b611be281611ba3565b840191505092915050565b60006020820190508181036000830152611c078184611bb4565b905092915050565b6000819050919050565b611c2281611c0f565b8114611c2d57600080fd5b50565b600081359050611c3f81611c19565b92915050565b600060208284031215611c5b57611c5a611a98565b5b6000611c6984828501611c30565b91505092915050565b600073ffffffffffffffffffffffffffffffffffffffff82169050919050565b6000611c9d82611c72565b9050919050565b611cad81611c92565b82525050565b6000602082019050611cc86000830184611ca4565b92915050565b611cd781611c92565b8114611ce257600080fd5b50565b600081359050611cf481611cce565b92915050565b60008060408385031215611d1157611d10611a98565b5b6000611d1f85828601611ce5565b9250506020611d3085828601611c30565b9150509250929050565b611d4381611c0f565b82525050565b600061ffff82169050919050565b611d6081611d49565b82525050565b600067ffffffffffffffff82169050919050565b611d8381611d66565b82525050565b6000608082019050611d9e6000830187611d3a565b611dab6020830186611d57565b611db86040830185611d7a565b611dc56060830184611ca4565b95945050505050565b600080600060608486031215611de757611de6611a98565b5b6000611df586828701611ce5565b9350506020611e0686828701611ce5565b9250506040611e1786828701611c30565b9150509250925092565b611e2a81611c0f565b82525050565b611e3981611d49565b82525050565b611e4881611d66565b82525050565b611e5781611c92565b82525050565b608082016000820151611e736000850182611e21565b506020820151611e866020850182611e30565b506040820151611e996040850182611e3f565b506060820151611eac6060850182611e4e565b50505050565b6000608082019050611ec76000830184611e5d565b92915050565b600060208284031215611ee357611ee2611a98565b5b6000611ef184828501611ce5565b91505092915050565b6000602082019050611f0f6000830184611d3a565b92915050565b611f1e81611d49565b8114611f2957600080fd5b50565b600081359050611f3b81611f15565b92915050565b611f4a81611d66565b8114611f5557600080fd5b50565b600081359050611f6781611f41565b92915050565b60008060008060808587031215611f8757611f86611a98565b5b6000611f9587828801611ce5565b9450506020611fa687828801611c30565b9350506040611fb787828801611f2c565b9250506060611fc887828801611f58565b91505092959194509250565b611fdd81611b27565b8114611fe857600080fd5b50565b600081359050611ffa81611fd4565b92915050565b6000806040838503121561201757612016611a98565b5b600061202585828601611ce5565b925050602061203685828601611feb565b9150509250929050565b600080fd5b600080fd5b7f4e487b7100000000000000000000000000000000000000000000000000000000600052604160045260246000fd5b61208282611ba3565b810181811067ffffffffffffffff821117156120a1576120a061204a565b5b80604052505050565b60006120b4611a8e565b90506120c08282612079565b919050565b600067ffffffffffffffff8211156120e0576120df61204a565b5b6120e982611ba3565b9050602081019050919050565b82818337600083830152505050565b6000612118612113846120c5565b6120aa565b90508281526020810184848401111561213457612133612045565b5b61213f8482856120f6565b509392505050565b600082601f83011261215c5761215b612040565b5b813561216c848260208601612105565b91505092915050565b6000806000806080858703121561218f5761218e611a98565b5b600061219d87828801611ce5565b94505060206121ae87828801611ce5565b93505060406121bf87828801611c30565b925050606085013567ffffffffffffffff8111156121e0576121df611a9d565b5b6121ec87828801612147565b91505092959194509250565b6000806040838503121561220f5761220e611a98565b5b600061221d85828601611ce5565b925050602061222e85828601611ce5565b9150509250929050565b7f4e487b7100000000000000000000000000000000000000000000000000000000600052602260045260246000fd5b6000600282049050600182168061227f57607f821691505b60208210810361229257612291612238565b5b50919050565b60006060820190506122ad6000830186611ca4565b6122ba6020830185611d3a565b6122c76040830184611ca4565b949350505050565b7f4c6f616e4e46543a20717565727920666f72206e6f6e6578697374656e74207460008201527f6f6b656e00000000000000000000000000000000000000000000000000000000602082015250565b600061232b602483611b68565b9150612336826122cf565b604082019050919050565b6000602082019050818103600083015261235a8161231e565b9050919050565b7f4c6f616e4e46543a206f6e6c792061646d696e2063616e206d696e7400000000600082015250565b6000612397601c83611b68565b91506123a282612361565b602082019050919050565b600060208201905081810360008301526123c68161238a565b9050919050565b7f4e487b7100000000000000000000000000000000000000000000000000000000600052601160045260246000fd5b600061240782611c0f565b91507fffffffffffffffffffffffffffffffffffffffffffffffffffffffffffffffff8203612439576124386123cd565b5b600182019050919050565b60006060820190506124596000830186611d3a565b6124666020830185611d57565b6124736040830184611d7a565b949350505050565b600081905092915050565b600061249182611b5d565b61249b818561247b565b93506124ab818560208601611b79565b80840191505092915050565b60006124c38285612486565b91506124cf8284612486565b91508190509392505050565b600081519050919050565b600082825260208201905092915050565b6000612502826124db565b61250c81856124e6565b935061251c818560208601611b79565b61252581611ba3565b840191505092915050565b60006080820190506125456000830187611ca4565b6125526020830186611ca4565b61255f6040830185611d3a565b818103606083015261257181846124f7565b905095945050505050565b60008151905061258b81611ace565b92915050565b6000602082840312156125a7576125a6611a98565b5b60006125b58482850161257c565b91505092915050565b7f4e487b7100000000000000000000000000000000000000000000000000000000600052601260045260246000fd5b60006040820190506126026000830185611ca4565b61260f6020830184611d3a565b939250505056fea264697066735822122069e09ac482bcf47fca324c44c5f514a7a2a6959254fcd96c653908d18fa4ec7564736f6c634300081c0033",
  "linkReferences": {},
  "deployedLinkReferences": {}
}