{
  "_format": "hh-sol-artifact-1",
  "contractName": "Pool",
  "sourceName": "contracts/TokenTranche.sol",
  "abi": [
    {
      "inputs": [
        {
          "internalType": "address",
          "name": "_loanNFT",
          "type": "address"
        },
        {
          "internalType": "address",
          "name": "_stablecoin",
          "type": "address"
        }
      ],
      "stateMutability": "nonpayable",
      "type": "constructor"
    },
    {
      "anonymous": false,
      "inputs": [
        {
          "indexed": true,
          "internalType": "address",
          "name": "investor",
          "type": "address"
        },
        {
          "indexed": true,
          "internalType": "uint8",
          "name": "classId",
          "type": "uint8"
        },
        {
          "indexed": true,
          "internalType": "uint256",
          "name": "seriesId",
          "type": "uint256"
        },
        {
          "indexed": false,
          "internalType": "uint256",
          "name": "amount",
          "type": "uint256"
        }
      ],
      "name": "Invested",
      "type": "event"
    },
    {
      "anonymous": false,
      "inputs": [
        {
          "indexed": true,
          "internalType": "uint8",
          "name": "classId",
          "type": "uint8"
        },
        {
          "indexed": true,
          "internalType": "uint256",
          "name": "seriesId",
          "type": "uint256"
        },
        {
          "indexed": false,
          "internalType": "uint256",
          "name": "amount",
          "type": "uint256"
        }
      ],
      "name": "PaymentDeposited",
      "type": "event"
    },
    {
      "anonymous": false,
      "inputs": [
        {
          "indexed": true,
          "internalType": "uint8",
          "name": "classId",
          "type": "uint8"
        },
        {
          "indexed": true,
          "internalType": "uint256",
          "name": "seriesId",
          "type": "uint256"
        },
        {
          "indexed": true,
          "internalType": "address",
          "name": "investor",
          "type": "address"
        },
        {
          "indexed": false,
          "internalType": "uint256",
          "name": "amount",
          "type": "uint256"
        }
      ],
      "name": "PaymentDistributed",
      "type": "event"
    },
    {
      "inputs": [],
      "name": "admin",
      "outputs": [
        {
          "internalType": "address",
          "name": "",
          "type": "address"
        }
      ],
      "stateMutability": "view",
      "type": "function"
    },
    {
      "inputs": [
        {
          "internalType": "uint8",
          "name": "classId",
          "type": "uint8"
        },
        {
          "internalType": "uint256[]",
          "name": "loans",
          "type": "uint256[]"
        },
        {
          "internalType": "uint256",
          "name": "notional",
          "type": "uint256"
        },
        {
          "internalType": "uint16",
          "name": "rateBps",
          "type": "uint16"
        }
      ],
      "name": "createTranche",
      "outputs": [
        {
          "internalType": "uint256",
          "name": "",
          "type": "uint256"
        }
      ],
      "stateMutability": "nonpayable",
      "type": "function"
    },
    {
      "inputs": [
        {
          "internalType": "uint8",
          "name": "classId",
          "type": "uint8"
        },
        {
          "internalType": "uint256",
          "name": "seriesId",
          "type": "uint256"
        },
        {
          "internalType": "uint256",
          "name": "amount",
          "type": "uint256"
        }
      ],
      "name": "depositPayment",
      "outputs": [],
      "stateMutability": "nonpayable",
      "type": "function"
    },
    {
      "inputs": [
        {
          "internalType": "uint8",
          "name": "classId",
          "type": "uint8"
        },
        {
          "internalType": "uint256",
          "name": "seriesId",
          "type": "uint256"
        }
      ],
      "name": "distributePayments",
      "outputs": [],
      "stateMutability": "nonpayable",
      "type": "function"
    },
    {
      "inputs": [
        {
          "internalType": "uint8",
          "name": "classId",
          "type": "uint8"
        },
        {
          "internalType": "uint256",
          "name": "seriesId",
          "type": "uint256"
        },
        {
          "internalType": "address",
          "name": "investor",
          "type": "address"
        }
      ],
      "name": "getExpectedReturn",
      "outputs": [
        {
          "internalType": "uint256",
          "name": "",
          "type": "uint256"
        }
      ],
      "stateMutability": "view",
      "type": "function"
    },
    {
      "inputs": [
        {
          "internalType": "uint8",
          "name": "classId",
          "type": "uint8"
        },
        {
          "internalType": "uint256",
          "name": "seriesId",
          "type": "uint256"
        }
      ],
      "name": "getInvestors",
      "outputs": [
        {
          "internalType": "address[]",
          "name": "",
          "type": "address[]"
        }
      ],
      "stateMutability": "view",
      "type": "function"
    },
    {
      "inputs": [
        {
          "internalType": "uint8",
          "name": "classId",
          "type": "uint8"
        },
        {
          "internalType": "uint256",
          "name": "seriesId",
          "type": "uint256"
        }
      ],
      "name": "getLoanContracts",
      "outputs": [
        {
          "internalType": "address[]",
          "name": "",
          "type": "address[]"
        }
      ],
      "stateMutability": "view",
      "type": "function"
    },
    {
      "inputs": [
        {
          "internalType": "uint8",
          "name": "classId",
          "type": "uint8"
        },
        {
          "internalType": "uint256",
          "name": "seriesId",
          "type": "uint256"
        }
      ],
      "name": "getLoanIds",
      "outputs": [
        {
          "internalType": "uint256[]",
          "name": "",
          "type": "uint256[]"
        }
      ],
      "stateMutability": "view",
      "type": "function"
    },
    {
      "inputs": [
        {
          "internalType": "uint8",
          "name": "classId",
          "type": "uint8"
        },
        {
          "internalType": "uint256",
          "name": "seriesId",
          "type": "uint256"
        }
      ],
      "name": "getTotalExpectedPayout",
      "outputs": [
        {
          "internalType": "uint256",
          "name": "",
          "type": "uint256"
        }
      ],
      "stateMutability": "view",
      "type": "function"
    },
    {
      "inputs": [
        {
          "internalType": "uint8",
          "name": "classId",
          "type": "uint8"
        },
        {
          "internalType": "uint256",
          "name": "seriesId",
          "type": "uint256"
        },
        {
          "internalType": "uint256",
          "name": "amount",
          "type": "uint256"
        }
      ],
      "name": "invest",
      "outputs": [],
      "stateMutability": "nonpayable",
      "type": "function"
    },
    {
      "inputs": [
        {
          "internalType": "uint8",
          "name": "",
          "type": "uint8"
        },
        {
          "internalType": "uint256",
          "name": "",
          "type": "uint256"
        },
        {
          "internalType": "address",
          "name": "",
          "type": "address"
        }
      ],
      "name": "investorHoldings",
      "outputs": [
        {
          "internalType": "uint256",
          "name": "",
          "type": "uint256"
        }
      ],
      "stateMutability": "view",
      "type": "function"
    },
    {
      "inputs": [],
      "name": "loanNFT",
      "outputs": [
        {
          "internalType": "contract LoanNFT",
          "name": "",
          "type": "address"
        }
      ],
      "stateMutability": "view",
      "type": "function"
    },
    {
      "inputs": [
        {
          "internalType": "uint8",
          "name": "",
          "type": "uint8"
        }
      ],
      "name": "nextSeries",
      "outputs": [
        {
          "internalType": "uint256",
          "name": "",
          "type": "uint256"
        }
      ],
      "stateMutability": "view",
      "type": "function"
    },
    {
      "inputs": [
        {
          "internalType": "uint8",
          "name": "",
          "type": "uint8"
        },
        {
          "internalType": "uint256",
          "name": "",
          "type": "uint256"
        },
        {
          "internalType": "address",
          "name": "",
          "type": "address"
        }
      ],
      "name": "paidOut",
      "outputs": [
        {
          "internalType": "uint256",
          "name": "",
          "type": "uint256"
        }
      ],
      "stateMutability": "view",
      "type": "function"
    },
    {
      "inputs": [
        {
          "internalType": "uint8",
          "name": "",
          "type": "uint8"
        },
        {
          "internalType": "uint256",
          "name": "",
          "type": "uint256"
        }
      ],
      "name": "payments",
      "outputs": [
        {
          "internalType": "uint256",
          "name": "",
          "type": "uint256"
        }
      ],
      "stateMutability": "view",
      "type": "function"
    },
    {
      "inputs": [],
      "name": "stablecoin",
      "outputs": [
        {
          "internalType": "contract IERC20",
          "name": "",
          "type": "address"
        }
      ],
      "stateMutability": "view",
      "type": "function"
    },
    {
      "inputs": [],
      "name": "trancheToken",
      "outputs": [
        {
          "internalType": "contract TrancheToken",
          "name": "",
          "type": "address"
        }
      ],
      "stateMutability": "view",
      "type": "function"
    },
    {
      "inputs": [
        {
          "internalType": "uint8",
          "name": "",
          "type": "uint8"
        },
        {
          "internalType": "uint256",
          "name": "",
          "type": "uint256"
        }
      ],
      "name": "tranches",
      "outputs": [
        {
          "internalType": "uint256",
          "name": "totalNotional",
          "type": "uint256"
        },
        {
          "internalType": "uint16",
          "name": "interestRateBps",
          "type": "uint16"
        }
      ],
      "stateMutability": "view",
      "type": "function"
    }
  ],
  "bytecode": "0x608060405234801561001057600080fd5b50604051616b4a380380616b4a833981810160405281019061003291906101df565b336000806101000a81548173ffffffffffffffffffffffffffffffffffffffff021916908373ffffffffffffffffffffffffffffffffffffffff16021790555081600160006101000a81548173ffffffffffffffffffffffffffffffffffffffff021916908373ffffffffffffffffffffffffffffffffffffffff16021790555080600360006101000a81548173ffffffffffffffffffffffffffffffffffffffff021916908373ffffffffffffffffffffffffffffffffffffffff160217905550306040516101019061016f565b61010b919061022e565b604051809103906000f080158015610127573d6000803e3d6000fd5b50600260006101000a81548173ffffffffffffffffffffffffffffffffffffffff021916908373ffffffffffffffffffffffffffffffffffffffff1602179055505050610249565b613f8d80612bbd83390190565b600080fd5b600073ffffffffffffffffffffffffffffffffffffffff82169050919050565b60006101ac82610181565b9050919050565b6101bc816101a1565b81146101c757600080fd5b50565b6000815190506101d9816101b3565b92915050565b600080604083850312156101f6576101f561017c565b5b6000610204858286016101ca565b9250506020610215858286016101ca565b9150509250929050565b610228816101a1565b82525050565b6000602082019050610243600083018461021f565b92915050565b612965806102586000396000f3fe608060405234801561001057600080fd5b50600436106101165760003560e01c80634c090f51116100a2578063aef6846611610071578063aef6846614610340578063bbc3da6f1461035c578063e9cbd8221461038c578063f851a440146103aa578063fb7a7bdf146103c857610116565b80634c090f5114610294578063509e9dc2146102b05780636e2d5d11146102e05780637284c7a91461031057610116565b806329c6217d116100e957806329c6217d146101b557806334a41177146101e557806336559b62146102035780633753b87c146102335780633b6032541461026357610116565b8063065eb6441461011b5780631a9d25141461014b57806324c994df14610167578063258f07fc14610197575b600080fd5b61013560048036038101906101309190611dc8565b6103f8565b6040516101429190611e5f565b60405180910390f35b61016560048036038101906101609190611e7a565b61082f565b005b610181600480360381019061017c9190611eba565b610ff2565b60405161018e9190611e5f565b60405180910390f35b61019f61100a565b6040516101ac9190611f66565b60405180910390f35b6101cf60048036038101906101ca9190611e7a565b611030565b6040516101dc9190611e5f565b60405180910390f35b6101ed6111b1565b6040516101fa9190611fa2565b60405180910390f35b61021d60048036038101906102189190611e7a565b6111d7565b60405161022a919061207b565b60405180910390f35b61024d60048036038101906102489190611e7a565b61125d565b60405161025a919061216d565b60405180910390f35b61027d60048036038101906102789190611e7a565b611319565b60405161028b92919061219e565b60405180910390f35b6102ae60048036038101906102a991906121c7565b611358565b005b6102ca60048036038101906102c59190611e7a565b611735565b6040516102d79190611e5f565b60405180910390f35b6102fa60048036038101906102f59190612246565b61175a565b6040516103079190611e5f565b60405180910390f35b61032a60048036038101906103259190612246565b61178c565b6040516103379190611e5f565b60405180910390f35b61035a600480360381019061035591906121c7565b611872565b005b61037660048036038101906103719190611e7a565b611a63565b604051610383919061216d565b60405180910390f35b610394611b1f565b6040516103a191906122ba565b60405180910390f35b6103b2611b45565b6040516103bf91906122e4565b60405180910390f35b6103e260048036038101906103dd9190612246565b611b69565b6040516103ef9190611e5f565b60405180910390f35b60008060009054906101000a900473ffffffffffffffffffffffffffffffffffffffff1673ffffffffffffffffffffffffffffffffffffffff163373ffffffffffffffffffffffffffffffffffffffff1614610489576040517f08c379a00000000000000000000000000000000000000000000000000000000081526004016104809061235c565b60405180910390fd5b6000600660008860ff1660ff168152602001908152602001600020600081546104b1906123ab565b919050819055905060008686905067ffffffffffffffff8111156104d8576104d76123f3565b5b6040519080825280602002602001820160405280156105065781602001602082028036833780820191505090505b50905060005b8787905081101561059457600160009054906101000a900473ffffffffffffffffffffffffffffffffffffffff1682828151811061054d5761054c612422565b5b602002602001019073ffffffffffffffffffffffffffffffffffffffff16908173ffffffffffffffffffffffffffffffffffffffff1681525050808060010191505061050c565b506040518060a00160405280828152602001888880806020026020016040519081016040528093929190818152602001838360200280828437600081840152601f19601f8201169050808301925050505050505081526020018681526020018561ffff168152602001600067ffffffffffffffff811115610618576106176123f3565b5b6040519080825280602002602001820160405280156106465781602001602082028036833780820191505090505b50815250600460008a60ff1660ff16815260200190815260200160002060008481526020019081526020016000206000820151816000019080519060200190610690929190611b9b565b5060208201518160010190805190602001906106ad929190611c25565b506040820151816002015560608201518160030160006101000a81548161ffff021916908361ffff16021790555060808201518160040190805190602001906106f7929190611b9b565b509050506000600167ffffffffffffffff811115610718576107176123f3565b5b60405190808252806020026020018201604052801561075157816020015b61073e611c72565b8152602001906001900390816107365790505b50905060405180606001604052808a60ff168152602001848152602001878152508160008151811061078657610785612422565b5b6020026020010181905250600260009054906101000a900473ffffffffffffffffffffffffffffffffffffffff1673ffffffffffffffffffffffffffffffffffffffff166319ab393930836040518363ffffffff1660e01b81526004016107ee929190612542565b600060405180830381600087803b15801561080857600080fd5b505af115801561081c573d6000803e3d6000fd5b5050505082935050505095945050505050565b60008054906101000a900473ffffffffffffffffffffffffffffffffffffffff1673ffffffffffffffffffffffffffffffffffffffff163373ffffffffffffffffffffffffffffffffffffffff16146108bd576040517f08c379a00000000000000000000000000000000000000000000000000000000081526004016108b49061235c565b60405180910390fd5b6000600560008460ff1660ff16815260200190815260200160002060008381526020019081526020016000205490506000811161092f576040517f08c379a0000000000000000000000000000000000000000000000000000000008152600401610926906125be565b60405180910390fd5b6000600460008560ff1660ff168152602001908152602001600020600084815260200190815260200160002060040190506000806000600460008860ff1660ff168152602001908152602001600020600087815260200190815260200160002060030160009054906101000a900461ffff16905060005b8480549050811015610ab2576000600760008a60ff1660ff168152602001908152602001600020600089815260200190815260200160002060008784815481106109f3576109f2612422565b5b9060005260206000200160009054906101000a900473ffffffffffffffffffffffffffffffffffffffff1673ffffffffffffffffffffffffffffffffffffffff1673ffffffffffffffffffffffffffffffffffffffff1681526020019081526020016000205490508085610a6791906125de565b945060006127108461ffff1683610a7e9190612612565b610a889190612683565b90508082610a9691906125de565b85610aa191906125de565b9450505080806001019150506109a6565b5060008311610af6576040517f08c379a0000000000000000000000000000000000000000000000000000000008152600401610aed90612700565b60405180910390fd5b600082861015905060005b8580549050811015610fe7576000868281548110610b2257610b21612422565b5b9060005260206000200160009054906101000a900473ffffffffffffffffffffffffffffffffffffffff1690506000600760008c60ff1660ff16815260200190815260200160002060008b815260200190815260200160002060008373ffffffffffffffffffffffffffffffffffffffff1673ffffffffffffffffffffffffffffffffffffffff1681526020019081526020016000205490506000811115610fd85760008415610c015760006127108761ffff1684610be19190612612565b610beb9190612683565b90508083610bf991906125de565b915050610c48565b60006127108761ffff1684610c169190612612565b610c209190612683565b83610c2b91906125de565b905087818c610c3a9190612612565b610c449190612683565b9150505b6000811115610fd6576000600167ffffffffffffffff811115610c6e57610c6d6123f3565b5b604051908082528060200260200182016040528015610ca757816020015b610c94611c72565b815260200190600190039081610c8c5790505b50905060405180606001604052808e60ff1681526020018d81526020018481525081600081518110610cdc57610cdb612422565b5b6020026020010181905250600260009054906101000a900473ffffffffffffffffffffffffffffffffffffffff1673ffffffffffffffffffffffffffffffffffffffff16630d345f4f85836040518363ffffffff1660e01b8152600401610d44929190612542565b600060405180830381600087803b158015610d5e57600080fd5b505af1158015610d72573d6000803e3d6000fd5b50505050600360009054906101000a900473ffffffffffffffffffffffffffffffffffffffff1673ffffffffffffffffffffffffffffffffffffffff1663a9059cbb85846040518363ffffffff1660e01b8152600401610dd3929190612720565b6020604051808303816000875af1158015610df2573d6000803e3d6000fd5b505050506040513d601f19601f82011682018060405250810190610e169190612781565b610e55576040517f08c379a0000000000000000000000000000000000000000000000000000000008152600401610e4c906127fa565b60405180910390fd5b6000600760008f60ff1660ff16815260200190815260200160002060008e815260200190815260200160002060008673ffffffffffffffffffffffffffffffffffffffff1673ffffffffffffffffffffffffffffffffffffffff1681526020019081526020016000208190555081600860008f60ff1660ff16815260200190815260200160002060008e815260200190815260200160002060008673ffffffffffffffffffffffffffffffffffffffff1673ffffffffffffffffffffffffffffffffffffffff1681526020019081526020016000206000828254610f3991906125de565b9250508190555081600560008f60ff1660ff16815260200190815260200160002060008e81526020019081526020016000206000828254610f7a919061281a565b925050819055508373ffffffffffffffffffffffffffffffffffffffff168c8e60ff167f0713e27cfa222bb857bb4257bfa325eb15f2aa9a63e6265da4dd59cad81f1ea585604051610fcc9190611e5f565b60405180910390a4505b505b50508080600101915050610b01565b505050505050505050565b60066020528060005260406000206000915090505481565b600260009054906101000a900473ffffffffffffffffffffffffffffffffffffffff1681565b600080600460008560ff1660ff16815260200190815260200160002060008481526020019081526020016000206004019050600080600460008760ff1660ff168152602001908152602001600020600086815260200190815260200160002060030160009054906101000a900461ffff16905060005b83805490508110156111a4576000600760008960ff1660ff168152602001908152602001600020600088815260200190815260200160002060008684815481106110f3576110f2612422565b5b9060005260206000200160009054906101000a900473ffffffffffffffffffffffffffffffffffffffff1673ffffffffffffffffffffffffffffffffffffffff1673ffffffffffffffffffffffffffffffffffffffff16815260200190815260200160002054905060006127108461ffff16836111709190612612565b61117a9190612683565b9050808261118891906125de565b8561119391906125de565b9450505080806001019150506110a6565b5081935050505092915050565b600160009054906101000a900473ffffffffffffffffffffffffffffffffffffffff1681565b6060600460008460ff1660ff168152602001908152602001600020600083815260200190815260200160002060010180548060200260200160405190810160405280929190818152602001828054801561125057602002820191906000526020600020905b81548152602001906001019080831161123c575b5050505050905092915050565b6060600460008460ff1660ff168152602001908152602001600020600083815260200190815260200160002060040180548060200260200160405190810160405280929190818152602001828054801561130c57602002820191906000526020600020905b8160009054906101000a900473ffffffffffffffffffffffffffffffffffffffff1673ffffffffffffffffffffffffffffffffffffffff16815260200190600101908083116112c2575b5050505050905092915050565b6004602052816000526040600020602052806000526040600020600091509150508060020154908060030160009054906101000a900461ffff16905082565b600360009054906101000a900473ffffffffffffffffffffffffffffffffffffffff1673ffffffffffffffffffffffffffffffffffffffff166323b872dd3330846040518463ffffffff1660e01b81526004016113b79392919061284e565b6020604051808303816000875af11580156113d6573d6000803e3d6000fd5b505050506040513d601f19601f820116820180604052508101906113fa9190612781565b611439576040517f08c379a0000000000000000000000000000000000000000000000000000000008152600401611430906128d1565b60405180910390fd5b6000600760008560ff1660ff168152602001908152602001600020600084815260200190815260200160002060003373ffffffffffffffffffffffffffffffffffffffff1673ffffffffffffffffffffffffffffffffffffffff168152602001908152602001600020540361153757600460008460ff1660ff1681526020019081526020016000206000838152602001908152602001600020600401339080600181540180825580915050600190039060005260206000200160009091909190916101000a81548173ffffffffffffffffffffffffffffffffffffffff021916908373ffffffffffffffffffffffffffffffffffffffff1602179055505b6000600167ffffffffffffffff811115611554576115536123f3565b5b60405190808252806020026020018201604052801561158d57816020015b61157a611c72565b8152602001906001900390816115725790505b50905060405180606001604052808560ff16815260200184815260200183815250816000815181106115c2576115c1612422565b5b6020026020010181905250600260009054906101000a900473ffffffffffffffffffffffffffffffffffffffff1673ffffffffffffffffffffffffffffffffffffffff166388dad9543033846040518463ffffffff1660e01b815260040161162c939291906128f1565b600060405180830381600087803b15801561164657600080fd5b505af115801561165a573d6000803e3d6000fd5b5050505081600760008660ff1660ff168152602001908152602001600020600085815260200190815260200160002060003373ffffffffffffffffffffffffffffffffffffffff1673ffffffffffffffffffffffffffffffffffffffff16815260200190815260200160002060008282546116d591906125de565b92505081905550828460ff163373ffffffffffffffffffffffffffffffffffffffff167fb5234e19609b89a430339b8dfdedd511bc51714317ae9e6110863cdaf5e4b184856040516117279190611e5f565b60405180910390a450505050565b6005602052816000526040600020602052806000526040600020600091509150505481565b600860205282600052604060002060205281600052604060002060205280600052604060002060009250925050505481565b600080600760008660ff1660ff168152602001908152602001600020600085815260200190815260200160002060008473ffffffffffffffffffffffffffffffffffffffff1673ffffffffffffffffffffffffffffffffffffffff1681526020019081526020016000205490506000600460008760ff1660ff168152602001908152602001600020600086815260200190815260200160002060030160009054906101000a900461ffff16905060006127108261ffff168461184e9190612612565b6118589190612683565b9050808361186691906125de565b93505050509392505050565b60008054906101000a900473ffffffffffffffffffffffffffffffffffffffff1673ffffffffffffffffffffffffffffffffffffffff163373ffffffffffffffffffffffffffffffffffffffff1614611900576040517f08c379a00000000000000000000000000000000000000000000000000000000081526004016118f79061235c565b60405180910390fd5b600360009054906101000a900473ffffffffffffffffffffffffffffffffffffffff1673ffffffffffffffffffffffffffffffffffffffff166323b872dd3330846040518463ffffffff1660e01b815260040161195f9392919061284e565b6020604051808303816000875af115801561197e573d6000803e3d6000fd5b505050506040513d601f19601f820116820180604052508101906119a29190612781565b6119e1576040517f08c379a00000000000000000000000000000000000000000000000000000000081526004016119d8906128d1565b60405180910390fd5b80600560008560ff1660ff16815260200190815260200160002060008481526020019081526020016000206000828254611a1b91906125de565b92505081905550818360ff167f36fa300d7df461f5b7c378abf2dad5c12c4968cc4977a5f88a4693692eb0aec283604051611a569190611e5f565b60405180910390a3505050565b6060600460008460ff1660ff1681526020019081526020016000206000838152602001908152602001600020600001805480602002602001604051908101604052809291908181526020018280548015611b1257602002820191906000526020600020905b8160009054906101000a900473ffffffffffffffffffffffffffffffffffffffff1673ffffffffffffffffffffffffffffffffffffffff1681526020019060010190808311611ac8575b5050505050905092915050565b600360009054906101000a900473ffffffffffffffffffffffffffffffffffffffff1681565b60008054906101000a900473ffffffffffffffffffffffffffffffffffffffff1681565b600760205282600052604060002060205281600052604060002060205280600052604060002060009250925050505481565b828054828255906000526020600020908101928215611c14579160200282015b82811115611c135782518260006101000a81548173ffffffffffffffffffffffffffffffffffffffff021916908373ffffffffffffffffffffffffffffffffffffffff16021790555091602001919060010190611bbb565b5b509050611c219190611c93565b5090565b828054828255906000526020600020908101928215611c61579160200282015b82811115611c60578251825591602001919060010190611c45565b5b509050611c6e9190611c93565b5090565b60405180606001604052806000815260200160008152602001600081525090565b5b80821115611cac576000816000905550600101611c94565b5090565b600080fd5b600080fd5b600060ff82169050919050565b611cd081611cba565b8114611cdb57600080fd5b50565b600081359050611ced81611cc7565b92915050565b600080fd5b600080fd5b600080fd5b60008083601f840112611d1857611d17611cf3565b5b8235905067ffffffffffffffff811115611d3557611d34611cf8565b5b602083019150836020820283011115611d5157611d50611cfd565b5b9250929050565b6000819050919050565b611d6b81611d58565b8114611d7657600080fd5b50565b600081359050611d8881611d62565b92915050565b600061ffff82169050919050565b611da581611d8e565b8114611db057600080fd5b50565b600081359050611dc281611d9c565b92915050565b600080600080600060808688031215611de457611de3611cb0565b5b6000611df288828901611cde565b955050602086013567ffffffffffffffff811115611e1357611e12611cb5565b5b611e1f88828901611d02565b94509450506040611e3288828901611d79565b9250506060611e4388828901611db3565b9150509295509295909350565b611e5981611d58565b82525050565b6000602082019050611e746000830184611e50565b92915050565b60008060408385031215611e9157611e90611cb0565b5b6000611e9f85828601611cde565b9250506020611eb085828601611d79565b9150509250929050565b600060208284031215611ed057611ecf611cb0565b5b6000611ede84828501611cde565b91505092915050565b600073ffffffffffffffffffffffffffffffffffffffff82169050919050565b6000819050919050565b6000611f2c611f27611f2284611ee7565b611f07565b611ee7565b9050919050565b6000611f3e82611f11565b9050919050565b6000611f5082611f33565b9050919050565b611f6081611f45565b82525050565b6000602082019050611f7b6000830184611f57565b92915050565b6000611f8c82611f33565b9050919050565b611f9c81611f81565b82525050565b6000602082019050611fb76000830184611f93565b92915050565b600081519050919050565b600082825260208201905092915050565b6000819050602082019050919050565b611ff281611d58565b82525050565b60006120048383611fe9565b60208301905092915050565b6000602082019050919050565b600061202882611fbd565b6120328185611fc8565b935061203d83611fd9565b8060005b8381101561206e5781516120558882611ff8565b975061206083612010565b925050600181019050612041565b5085935050505092915050565b60006020820190508181036000830152612095818461201d565b905092915050565b600081519050919050565b600082825260208201905092915050565b6000819050602082019050919050565b60006120d482611ee7565b9050919050565b6120e4816120c9565b82525050565b60006120f683836120db565b60208301905092915050565b6000602082019050919050565b600061211a8261209d565b61212481856120a8565b935061212f836120b9565b8060005b8381101561216057815161214788826120ea565b975061215283612102565b925050600181019050612133565b5085935050505092915050565b60006020820190508181036000830152612187818461210f565b905092915050565b61219881611d8e565b82525050565b60006040820190506121b36000830185611e50565b6121c0602083018461218f565b9392505050565b6000806000606084860312156121e0576121df611cb0565b5b60006121ee86828701611cde565b93505060206121ff86828701611d79565b925050604061221086828701611d79565b9150509250925092565b612223816120c9565b811461222e57600080fd5b50565b6000813590506122408161221a565b92915050565b60008060006060848603121561225f5761225e611cb0565b5b600061226d86828701611cde565b935050602061227e86828701611d79565b925050604061228f86828701612231565b9150509250925092565b60006122a482611f33565b9050919050565b6122b481612299565b82525050565b60006020820190506122cf60008301846122ab565b92915050565b6122de816120c9565b82525050565b60006020820190506122f960008301846122d5565b92915050565b600082825260208201905092915050565b7f506f6f6c3a206f6e6c792061646d696e00000000000000000000000000000000600082015250565b60006123466010836122ff565b915061235182612310565b602082019050919050565b6000602082019050818103600083015261237581612339565b9050919050565b7f4e487b7100000000000000000000000000000000000000000000000000000000600052601160045260246000fd5b60006123b682611d58565b91507fffffffffffffffffffffffffffffffffffffffffffffffffffffffffffffffff82036123e8576123e761237c565b5b600182019050919050565b7f4e487b7100000000000000000000000000000000000000000000000000000000600052604160045260246000fd5b7f4e487b7100000000000000000000000000000000000000000000000000000000600052603260045260246000fd5b600081519050919050565b600082825260208201905092915050565b6000819050602082019050919050565b6060820160008201516124936000850182611fe9565b5060208201516124a66020850182611fe9565b5060408201516124b96040850182611fe9565b50505050565b60006124cb838361247d565b60608301905092915050565b6000602082019050919050565b60006124ef82612451565b6124f9818561245c565b93506125048361246d565b8060005b8381101561253557815161251c88826124bf565b9750612527836124d7565b925050600181019050612508565b5085935050505092915050565b600060408201905061255760008301856122d5565b818103602083015261256981846124e4565b90509392505050565b7f506f6f6c3a206e6f2066756e647320746f206469737472696275746500000000600082015250565b60006125a8601c836122ff565b91506125b382612572565b602082019050919050565b600060208201905081810360008301526125d78161259b565b9050919050565b60006125e982611d58565b91506125f483611d58565b925082820190508082111561260c5761260b61237c565b5b92915050565b600061261d82611d58565b915061262883611d58565b925082820261263681611d58565b9150828204841483151761264d5761264c61237c565b5b5092915050565b7f4e487b7100000000000000000000000000000000000000000000000000000000600052601260045260246000fd5b600061268e82611d58565b915061269983611d58565b9250826126a9576126a8612654565b5b828204905092915050565b7f506f6f6c3a206e6f20696e766573746f72730000000000000000000000000000600082015250565b60006126ea6012836122ff565b91506126f5826126b4565b602082019050919050565b60006020820190508181036000830152612719816126dd565b9050919050565b600060408201905061273560008301856122d5565b6127426020830184611e50565b9392505050565b60008115159050919050565b61275e81612749565b811461276957600080fd5b50565b60008151905061277b81612755565b92915050565b60006020828403121561279757612796611cb0565b5b60006127a58482850161276c565b91505092915050565b7f506f6f6c3a207472616e73666572206661696c65640000000000000000000000600082015250565b60006127e46015836122ff565b91506127ef826127ae565b602082019050919050565b60006020820190508181036000830152612813816127d7565b9050919050565b600061282582611d58565b915061283083611d58565b92508282039050818111156128485761284761237c565b5b92915050565b600060608201905061286360008301866122d5565b61287060208301856122d5565b61287d6040830184611e50565b949350505050565b7f506f6f6c3a207061796d656e74206661696c6564000000000000000000000000600082015250565b60006128bb6014836122ff565b91506128c682612885565b602082019050919050565b600060208201905081810360008301526128ea816128ae565b9050919050565b600060608201905061290660008301866122d5565b61291360208301856122d5565b818103604083015261292581846124e4565b905094935050505056fea2646970667358221220105a7f8797019d8b272aad6957dc5e4c654bead2b1f022f22d77c6354b2b34fc64736f6c634300081c0033608060405234801561001057600080fd5b50604051613f8d380380613f8d83398181016040528101906100329190610a9e565b6040518060400160405280600681526020017f73796d626f6c000000000000000000000000000000000000000000000000000081525060026000808152602001908152602001600020600001908161008a9190610d1b565b506040518060400160405280600681526020017f737472696e6700000000000000000000000000000000000000000000000000008152506002600080815260200190815260200160002060010190816100e39190610d1b565b506040518060400160405280601381526020017f73796d626f6c206f662074686520636c6173730000000000000000000000000081525060026000808152602001908152602001600020600201908161013c9190610d1b565b506040518060400160405280600b81526020017f444249542046697820364d00000000000000000000000000000000000000000081525060016000808152602001908152602001600020600001600080815260200190815260200160002060000190816101a99190610d1b565b506040518060400160405280600681526020017f73796d626f6c0000000000000000000000000000000000000000000000000000815250600260006001815260200190815260200160002060000190816102039190610d1b565b506040518060400160405280600681526020017f737472696e6700000000000000000000000000000000000000000000000000008152506002600060018152602001908152602001600020600101908161025d9190610d1b565b506040518060400160405280601381526020017f73796d626f6c206f662074686520636c61737300000000000000000000000000815250600260006001815260200190815260200160002060020190816102b79190610d1b565b506040518060400160405280601b81526020017f4442495420466978207465737420496e7374616e74616e656f757300000000008152506001600060018152602001908152602001600020600001600080815260200190815260200160002060000190816103259190610d1b565b506040518060400160405280600681526020017f706572696f6400000000000000000000000000000000000000000000000000008152506002600060058152602001908152602001600020600001908161037f9190610d1b565b506040518060400160405280600381526020017f696e740000000000000000000000000000000000000000000000000000000000815250600260006005815260200190815260200160002060010190816103d99190610d1b565b506040518060600160405280602a8152602001613f63602a9139600260006005815260200190815260200160002060020190816104169190610d1b565b50600a60016000808152602001908152602001600020600001600060058152602001908152602001600020600101819055506001806000600181526020019081526020016000206000016000600581526020019081526020016000206001018190555062ed4e00426104889190610e1c565b60016000808152602001908152602001600020600201600080815260200190815260200160002060000160008081526020019081526020016000206001018190555062ee9f80426104d99190610e1c565b6001600080815260200190815260200160002060020160006001815260200190815260200160002060000160008081526020019081526020016000206001018190555062eff1004261052b9190610e1c565b6001600080815260200190815260200160002060020160006002815260200190815260200160002060000160008081526020019081526020016000206001018190555060014261057b9190610e1c565b600160006001815260200190815260200160002060020160008081526020019081526020016000206000016000808152602001908152602001600020600101819055506002426105cb9190610e1c565b600160006001815260200190815260200160002060020160006001815260200190815260200160002060000160008081526020019081526020016000206001018190555060034261061c9190610e1c565b60016000600181526020019081526020016000206002016000600281526020019081526020016000206000016000808152602001908152602001600020600101819055506040518060400160405280600881526020017f6d6174757269747900000000000000000000000000000000000000000000000081525060016000808152602001908152602001600020600101600080815260200190815260200160002060000190816106cc9190610d1b565b506040518060400160405280600381526020017f696e74000000000000000000000000000000000000000000000000000000000081525060016000808152602001908152602001600020600101600080815260200190815260200160002060010190816107399190610d1b565b506040518060400160405280601881526020017f6d61747572697479206461746520696e20696e7465676572000000000000000081525060016000808152602001908152602001600020600101600080815260200190815260200160002060020190816107a69190610d1b565b506040518060400160405280600881526020017f6d617475726974790000000000000000000000000000000000000000000000008152506001600060018152602001908152602001600020600101600080815260200190815260200160002060000190816108149190610d1b565b506040518060400160405280600381526020017f696e74000000000000000000000000000000000000000000000000000000000081525060016000808152602001908152602001600020600101600080815260200190815260200160002060010190816108819190610d1b565b506040518060400160405280601881526020017f6d61747572697479206461746520696e20696e746567657200000000000000008152506001600060018152602001908152602001600020600101600080815260200190815260200160002060020190816108ef9190610d1b565b5060018060008081526020019081526020016000206002016000808152602001908152602001600020600001600080815260200190815260200160002060020160146101000a81548160ff0219169083151502179055506001806000808152602001908152602001600020600201600060018152602001908152602001600020600001600080815260200190815260200160002060020160146101000a81548160ff0219169083151502179055506001806000808152602001908152602001600020600201600060028152602001908152602001600020600001600080815260200190815260200160002060020160146101000a81548160ff02191690831515021790555080600360006101000a81548173ffffffffffffffffffffffffffffffffffffffff021916908373ffffffffffffffffffffffffffffffffffffffff16021790555050610e50565b600080fd5b600073ffffffffffffffffffffffffffffffffffffffff82169050919050565b6000610a6b82610a40565b9050919050565b610a7b81610a60565b8114610a8657600080fd5b50565b600081519050610a9881610a72565b92915050565b600060208284031215610ab457610ab3610a3b565b5b6000610ac284828501610a89565b91505092915050565b600081519050919050565b7f4e487b7100000000000000000000000000000000000000000000000000000000600052604160045260246000fd5b7f4e487b7100000000000000000000000000000000000000000000000000000000600052602260045260246000fd5b60006002820490506001821680610b4c57607f821691505b602082108103610b5f57610b5e610b05565b5b50919050565b60008190508160005260206000209050919050565b60006020601f8301049050919050565b600082821b905092915050565b600060088302610bc77fffffffffffffffffffffffffffffffffffffffffffffffffffffffffffffffff82610b8a565b610bd18683610b8a565b95508019841693508086168417925050509392505050565b6000819050919050565b6000819050919050565b6000610c18610c13610c0e84610be9565b610bf3565b610be9565b9050919050565b6000819050919050565b610c3283610bfd565b610c46610c3e82610c1f565b848454610b97565b825550505050565b600090565b610c5b610c4e565b610c66818484610c29565b505050565b5b81811015610c8a57610c7f600082610c53565b600181019050610c6c565b5050565b601f821115610ccf57610ca081610b65565b610ca984610b7a565b81016020851015610cb8578190505b610ccc610cc485610b7a565b830182610c6b565b50505b505050565b600082821c905092915050565b6000610cf260001984600802610cd4565b1980831691505092915050565b6000610d0b8383610ce1565b9150826002028217905092915050565b610d2482610acb565b67ffffffffffffffff811115610d3d57610d3c610ad6565b5b610d478254610b34565b610d52828285610c8e565b600060209050601f831160018114610d855760008415610d73578287015190505b610d7d8582610cff565b865550610de5565b601f198416610d9386610b65565b60005b82811015610dbb57848901518255600182019150602085019450602081019050610d96565b86831015610dd85784890151610dd4601f891682610ce1565b8355505b6001600288020188555050505b505050505050565b7f4e487b7100000000000000000000000000000000000000000000000000000000600052601160045260246000fd5b6000610e2782610be9565b9150610e3283610be9565b9250828201905080821115610e4a57610e49610ded565b5b92915050565b61310480610e5f6000396000f3fe608060405234801561001057600080fd5b506004361061012c5760003560e01c80637228cfaf116100ad578063bc3c19f711610071578063bc3c19f714610378578063c2458d6b146103a8578063c7da92e1146103d8578063ccea7b8614610408578063f3273696146104385761012c565b80637228cfaf146102d657806388dad954146102f25780638da5cb5b1461030e5780639d3fed381461032c578063b15edbe5146103485761012c565b80633cf3a604116100f45780633cf3a604146101f9578063443b63b9146102295780634bb95aa214610259578063572e5ef214610275578063693f5548146102a65761012c565b8063029ba4eb146101315780630d345f4f1461016157806319ab39391461017d5780631fa03a2b146101995780632d760d57146101c9575b600080fd5b61014b60048036038101906101469190612156565b610454565b6040516101589190612284565b60405180910390f35b61017b60048036038101906101769190612369565b61064c565b005b61019760048036038101906101929190612369565b6107ea565b005b6101b360048036038101906101ae91906123c9565b610909565b6040516101c09190612424565b60405180910390f35b6101e360048036038101906101de919061243f565b61099c565b6040516101f091906124a1565b60405180910390f35b610213600480360381019061020e91906124bc565b610a7d565b6040516102209190612284565b60405180910390f35b610243600480360381019061023e91906124e9565b610c60565b60405161025091906124a1565b60405180910390f35b610273600480360381019061026e919061257c565b610d11565b005b61028f600480360381019061028a9190612156565b610e0d565b60405161029d9291906125bc565b60405180910390f35b6102c060048036038101906102bb91906125e5565b610ed6565b6040516102cd91906126c8565b60405180910390f35b6102f060048036038101906102eb9190612369565b61103a565b005b61030c600480360381019061030791906126ea565b611158565b005b61031661137e565b604051610323919061276d565b60405180910390f35b61034660048036038101906103419190612369565b6113a4565b005b610362600480360381019061035d9190612156565b61154e565b60405161036f91906124a1565b60405180910390f35b610392600480360381019061038d9190612156565b611583565b60405161039f91906124a1565b60405180910390f35b6103c260048036038101906103bd9190612156565b6115b8565b6040516103cf91906124a1565b60405180910390f35b6103f260048036038101906103ed9190612156565b6115f4565b6040516103ff91906126c8565b60405180910390f35b610422600480360381019061041d9190612156565b611743565b60405161042f91906124a1565b60405180910390f35b610452600480360381019061044d91906126ea565b611778565b005b61045c6120b5565b60016000848152602001908152602001600020600101600083815260200190815260200160002060405180606001604052908160008201805461049e906127b7565b80601f01602080910402602001604051908101604052809291908181526020018280546104ca906127b7565b80156105175780601f106104ec57610100808354040283529160200191610517565b820191906000526020600020905b8154815290600101906020018083116104fa57829003601f168201915b50505050508152602001600182018054610530906127b7565b80601f016020809104026020016040519081016040528092919081815260200182805461055c906127b7565b80156105a95780601f1061057e576101008083540402835291602001916105a9565b820191906000526020600020905b81548152906001019060200180831161058c57829003601f168201915b505050505081526020016002820180546105c2906127b7565b80601f01602080910402602001604051908101604052809291908181526020018280546105ee906127b7565b801561063b5780601f106106105761010080835404028352916020019161063b565b820191906000526020600020905b81548152906001019060200180831161061e57829003601f168201915b505050505081525050905092915050565b600073ffffffffffffffffffffffffffffffffffffffff168373ffffffffffffffffffffffffffffffffffffffff16036106bb576040517f08c379a00000000000000000000000000000000000000000000000000000000081526004016106b29061286b565b60405180910390fd5b8273ffffffffffffffffffffffffffffffffffffffff163373ffffffffffffffffffffffffffffffffffffffff1614806106fb57506106fa8333610909565b5b61073a576040517f08c379a0000000000000000000000000000000000000000000000000000000008152600401610731906128fd565b60405180910390fd5b600082829050905060005b8181101561077c5761076f858585848181106107645761076361291d565b5b9050606002016119c2565b8080600101915050610745565b508373ffffffffffffffffffffffffffffffffffffffff163373ffffffffffffffffffffffffffffffffffffffff167f854463ea9c50bdbcc2ee7d49731da876b9a8a76ac599ea54b87fc3bf49dd4bbc85856040516107dc929190612a65565b60405180910390a350505050565b600082829050905060005b8181101561089b57600073ffffffffffffffffffffffffffffffffffffffff168573ffffffffffffffffffffffffffffffffffffffff160361086c576040517f08c379a000000000000000000000000000000000000000000000000000000000815260040161086390612afb565b60405180910390fd5b61088e858585848181106108835761088261291d565b5b905060600201611b1c565b80806001019150506107f5565b508373ffffffffffffffffffffffffffffffffffffffff163373ffffffffffffffffffffffffffffffffffffffff167f4623e64c229a38d0d39f345a5636f4aaad36652b7a59cc3cfee2b2e2cf37bdf385856040516108fb929190612a65565b60405180910390a350505050565b60008060008473ffffffffffffffffffffffffffffffffffffffff1673ffffffffffffffffffffffffffffffffffffffff16815260200190815260200160002060008373ffffffffffffffffffffffffffffffffffffffff1673ffffffffffffffffffffffffffffffffffffffff16815260200190815260200160002060009054906101000a900460ff16905092915050565b60008073ffffffffffffffffffffffffffffffffffffffff168473ffffffffffffffffffffffffffffffffffffffff1603610a0c576040517f08c379a0000000000000000000000000000000000000000000000000000000008152600401610a0390612b8d565b60405180910390fd5b60016000848152602001908152602001600020600201600083815260200190815260200160002060010160008573ffffffffffffffffffffffffffffffffffffffff1673ffffffffffffffffffffffffffffffffffffffff1681526020019081526020016000205490509392505050565b610a856120b5565b60026000838152602001908152602001600020604051806060016040529081600082018054610ab3906127b7565b80601f0160208091040260200160405190810160405280929190818152602001828054610adf906127b7565b8015610b2c5780601f10610b0157610100808354040283529160200191610b2c565b820191906000526020600020905b815481529060010190602001808311610b0f57829003601f168201915b50505050508152602001600182018054610b45906127b7565b80601f0160208091040260200160405190810160405280929190818152602001828054610b71906127b7565b8015610bbe5780601f10610b9357610100808354040283529160200191610bbe565b820191906000526020600020905b815481529060010190602001808311610ba157829003601f168201915b50505050508152602001600282018054610bd7906127b7565b80601f0160208091040260200160405190810160405280929190818152602001828054610c03906127b7565b8015610c505780601f10610c2557610100808354040283529160200191610c50565b820191906000526020600020905b815481529060010190602001808311610c3357829003601f168201915b5050505050815250509050919050565b600060016000848152602001908152602001600020600201600083815260200190815260200160002060020160008673ffffffffffffffffffffffffffffffffffffffff1673ffffffffffffffffffffffffffffffffffffffff16815260200190815260200160002060008573ffffffffffffffffffffffffffffffffffffffff1673ffffffffffffffffffffffffffffffffffffffff168152602001908152602001600020549050949350505050565b806000803373ffffffffffffffffffffffffffffffffffffffff1673ffffffffffffffffffffffffffffffffffffffff16815260200190815260200160002060008473ffffffffffffffffffffffffffffffffffffffff1673ffffffffffffffffffffffffffffffffffffffff16815260200190815260200160002060006101000a81548160ff0219169083151502179055508173ffffffffffffffffffffffffffffffffffffffff163373ffffffffffffffffffffffffffffffffffffffff167f3a950f10bb6df353a4ab85913de7c26461edd1b6250912c3ddcbe92b9164358483604051610e019190612424565b60405180910390a35050565b6000806000600160008681526020019081526020016000206002016000858152602001908152602001600020600001600080815260200190815260200160002060010154905060006001600087815260200190815260200160002060020160008681526020019081526020016000206000016000600581526020019081526020016000206001015482610ea09190612bdc565b90508142610eae9190612c10565b9350804210610ebe576000610ecb565b4281610eca9190612c10565b5b925050509250929050565b610ede6120d6565b6001600085815260200190815260200160002060020160008481526020019081526020016000206000016000838152602001908152602001600020604051806080016040529081600082018054610f34906127b7565b80601f0160208091040260200160405190810160405280929190818152602001828054610f60906127b7565b8015610fad5780601f10610f8257610100808354040283529160200191610fad565b820191906000526020600020905b815481529060010190602001808311610f9057829003601f168201915b50505050508152602001600182015481526020016002820160009054906101000a900473ffffffffffffffffffffffffffffffffffffffff1673ffffffffffffffffffffffffffffffffffffffff1673ffffffffffffffffffffffffffffffffffffffff1681526020016002820160149054906101000a900460ff16151515158152505090509392505050565b60005b828290508110156111525782828281811061105b5761105a61291d565b5b905060600201604001356001600085858581811061107c5761107b61291d565b5b90506060020160000135815260200190815260200160002060020160008585858181106110ac576110ab61291d565b5b90506060020160200135815260200190815260200160002060020160003373ffffffffffffffffffffffffffffffffffffffff1673ffffffffffffffffffffffffffffffffffffffff16815260200190815260200160002060008673ffffffffffffffffffffffffffffffffffffffff1673ffffffffffffffffffffffffffffffffffffffff16815260200190815260200160002081905550808060010191505061103d565b50505050565b600073ffffffffffffffffffffffffffffffffffffffff168473ffffffffffffffffffffffffffffffffffffffff16036111c7576040517f08c379a00000000000000000000000000000000000000000000000000000000081526004016111be90612cb6565b60405180910390fd5b600073ffffffffffffffffffffffffffffffffffffffff168373ffffffffffffffffffffffffffffffffffffffff1603611236576040517f08c379a000000000000000000000000000000000000000000000000000000000815260040161122d90612d22565b60405180910390fd5b8373ffffffffffffffffffffffffffffffffffffffff163373ffffffffffffffffffffffffffffffffffffffff16148061127657506112758433610909565b5b6112b5576040517f08c379a00000000000000000000000000000000000000000000000000000000081526004016112ac90612db4565b60405180910390fd5b600082829050905060005b818110156112f8576112eb86868686858181106112e0576112df61291d565b5b905060600201611bcf565b80806001019150506112c0565b508373ffffffffffffffffffffffffffffffffffffffff168573ffffffffffffffffffffffffffffffffffffffff163373ffffffffffffffffffffffffffffffffffffffff167f75fabf31534d6cddc003931b8cffc1effeea3ee3125535e609d386c8bf9ebdc4868660405161136f929190612a65565b60405180910390a45050505050565b600360009054906101000a900473ffffffffffffffffffffffffffffffffffffffff1681565b600073ffffffffffffffffffffffffffffffffffffffff168373ffffffffffffffffffffffffffffffffffffffff1603611413576040517f08c379a000000000000000000000000000000000000000000000000000000000815260040161140a90612e46565b60405180910390fd5b600082829050905060005b818110156114e057600061146a85858481811061143e5761143d61291d565b5b9050606002016000013586868581811061145b5761145a61291d565b5b90506060020160200135610e0d565b915050600081146114b0576040517f08c379a00000000000000000000000000000000000000000000000000000000081526004016114a790612eb2565b60405180910390fd5b6114d2868686858181106114c7576114c661291d565b5b905060600201611d48565b50808060010191505061141e565b508373ffffffffffffffffffffffffffffffffffffffff163373ffffffffffffffffffffffffffffffffffffffff167f9f652ddea6a7fd228f90e8d46f86b0e86d8299f8ca1415c7d6ab58bbe1cd632c8585604051611540929190612a65565b60405180910390a350505050565b600060016000848152602001908152602001600020600201600083815260200190815260200160002060030154905092915050565b600060016000848152602001908152602001600020600201600083815260200190815260200160002060040154905092915050565b60006115c48383611743565b6115ce8484611583565b6115d8858561154e565b6115e29190612bdc565b6115ec9190612bdc565b905092915050565b6115fc6120d6565b60016000848152602001908152602001600020600001600083815260200190815260200160002060405180608001604052908160008201805461163e906127b7565b80601f016020809104026020016040519081016040528092919081815260200182805461166a906127b7565b80156116b75780601f1061168c576101008083540402835291602001916116b7565b820191906000526020600020905b81548152906001019060200180831161169a57829003601f168201915b50505050508152602001600182015481526020016002820160009054906101000a900473ffffffffffffffffffffffffffffffffffffffff1673ffffffffffffffffffffffffffffffffffffffff1673ffffffffffffffffffffffffffffffffffffffff1681526020016002820160149054906101000a900460ff161515151581525050905092915050565b600060016000848152602001908152602001600020600201600083815260200190815260200160002060050154905092915050565b600073ffffffffffffffffffffffffffffffffffffffff168473ffffffffffffffffffffffffffffffffffffffff16036117e7576040517f08c379a00000000000000000000000000000000000000000000000000000000081526004016117de90612f44565b60405180910390fd5b600073ffffffffffffffffffffffffffffffffffffffff168373ffffffffffffffffffffffffffffffffffffffff1603611856576040517f08c379a000000000000000000000000000000000000000000000000000000000815260040161184d90612fb0565b60405180910390fd5b600082829050905060005b8181101561193c576118ad86338686858181106118815761188061291d565b5b9050606002016000013587878681811061189e5761189d61291d565b5b90506060020160200135610c60565b8484838181106118c0576118bf61291d565b5b90506060020160400135111561190b576040517f08c379a000000000000000000000000000000000000000000000000000000000815260040161190290612db4565b60405180910390fd5b61192f3387878787868181106119245761192361291d565b5b905060600201611ea2565b8080600101915050611861565b508373ffffffffffffffffffffffffffffffffffffffff168573ffffffffffffffffffffffffffffffffffffffff163373ffffffffffffffffffffffffffffffffffffffff167f75fabf31534d6cddc003931b8cffc1effeea3ee3125535e609d386c8bf9ebdc486866040516119b3929190612a65565b60405180910390a45050505050565b60006001600083600001358152602001908152602001600020600201600083602001358152602001908152602001600020905081604001358160010160008573ffffffffffffffffffffffffffffffffffffffff1673ffffffffffffffffffffffffffffffffffffffff168152602001908152602001600020541015611a7d576040517f08c379a0000000000000000000000000000000000000000000000000000000008152600401611a7490613042565b60405180910390fd5b81604001358160010160008573ffffffffffffffffffffffffffffffffffffffff1673ffffffffffffffffffffffffffffffffffffffff1681526020019081526020016000206000828254611ad29190612c10565b925050819055508160400135816003016000828254611af19190612c10565b925050819055508160400135816004016000828254611b109190612bdc565b92505081905550505050565b60006001600083600001358152602001908152602001600020600201600083602001358152602001908152602001600020905081604001358160010160008573ffffffffffffffffffffffffffffffffffffffff1673ffffffffffffffffffffffffffffffffffffffff1681526020019081526020016000206000828254611ba49190612bdc565b925050819055508160400135816003016000828254611bc39190612bdc565b92505081905550505050565b60006001600083600001358152602001908152602001600020600201600083602001358152602001908152602001600020905081604001358160010160008673ffffffffffffffffffffffffffffffffffffffff1673ffffffffffffffffffffffffffffffffffffffff168152602001908152602001600020541015611c8a576040517f08c379a0000000000000000000000000000000000000000000000000000000008152600401611c8190613042565b60405180910390fd5b81604001358160010160008673ffffffffffffffffffffffffffffffffffffffff1673ffffffffffffffffffffffffffffffffffffffff1681526020019081526020016000206000828254611cdf9190612c10565b9250508190555081604001358160010160008573ffffffffffffffffffffffffffffffffffffffff1673ffffffffffffffffffffffffffffffffffffffff1681526020019081526020016000206000828254611d3b9190612bdc565b9250508190555050505050565b60006001600083600001358152602001908152602001600020600201600083602001358152602001908152602001600020905081604001358160010160008573ffffffffffffffffffffffffffffffffffffffff1673ffffffffffffffffffffffffffffffffffffffff168152602001908152602001600020541015611e03576040517f08c379a0000000000000000000000000000000000000000000000000000000008152600401611dfa90613042565b60405180910390fd5b81604001358160010160008573ffffffffffffffffffffffffffffffffffffffff1673ffffffffffffffffffffffffffffffffffffffff1681526020019081526020016000206000828254611e589190612c10565b925050819055508160400135816003016000828254611e779190612c10565b925050819055508160400135816005016000828254611e969190612bdc565b92505081905550505050565b60006001600083600001358152602001908152602001600020600201600083602001358152602001908152602001600020905081604001358160010160008673ffffffffffffffffffffffffffffffffffffffff1673ffffffffffffffffffffffffffffffffffffffff168152602001908152602001600020541015611f5d576040517f08c379a0000000000000000000000000000000000000000000000000000000008152600401611f54906130ae565b60405180910390fd5b81604001358160020160008673ffffffffffffffffffffffffffffffffffffffff1673ffffffffffffffffffffffffffffffffffffffff16815260200190815260200160002060008773ffffffffffffffffffffffffffffffffffffffff1673ffffffffffffffffffffffffffffffffffffffff1681526020019081526020016000206000828254611fef9190612c10565b9250508190555081604001358160010160008673ffffffffffffffffffffffffffffffffffffffff1673ffffffffffffffffffffffffffffffffffffffff168152602001908152602001600020600082825461204b9190612c10565b9250508190555081604001358160010160008573ffffffffffffffffffffffffffffffffffffffff1673ffffffffffffffffffffffffffffffffffffffff16815260200190815260200160002060008282546120a79190612bdc565b925050819055505050505050565b60405180606001604052806060815260200160608152602001606081525090565b60405180608001604052806060815260200160008152602001600073ffffffffffffffffffffffffffffffffffffffff1681526020016000151581525090565b600080fd5b600080fd5b6000819050919050565b61213381612120565b811461213e57600080fd5b50565b6000813590506121508161212a565b92915050565b6000806040838503121561216d5761216c612116565b5b600061217b85828601612141565b925050602061218c85828601612141565b9150509250929050565b600081519050919050565b600082825260208201905092915050565b60005b838110156121d05780820151818401526020810190506121b5565b60008484015250505050565b6000601f19601f8301169050919050565b60006121f882612196565b61220281856121a1565b93506122128185602086016121b2565b61221b816121dc565b840191505092915050565b6000606083016000830151848203600086015261224382826121ed565b9150506020830151848203602086015261225d82826121ed565b9150506040830151848203604086015261227782826121ed565b9150508091505092915050565b6000602082019050818103600083015261229e8184612226565b905092915050565b600073ffffffffffffffffffffffffffffffffffffffff82169050919050565b60006122d1826122a6565b9050919050565b6122e1816122c6565b81146122ec57600080fd5b50565b6000813590506122fe816122d8565b92915050565b600080fd5b600080fd5b600080fd5b60008083601f84011261232957612328612304565b5b8235905067ffffffffffffffff81111561234657612345612309565b5b6020830191508360608202830111156123625761236161230e565b5b9250929050565b60008060006040848603121561238257612381612116565b5b6000612390868287016122ef565b935050602084013567ffffffffffffffff8111156123b1576123b061211b565b5b6123bd86828701612313565b92509250509250925092565b600080604083850312156123e0576123df612116565b5b60006123ee858286016122ef565b92505060206123ff858286016122ef565b9150509250929050565b60008115159050919050565b61241e81612409565b82525050565b60006020820190506124396000830184612415565b92915050565b60008060006060848603121561245857612457612116565b5b6000612466868287016122ef565b935050602061247786828701612141565b925050604061248886828701612141565b9150509250925092565b61249b81612120565b82525050565b60006020820190506124b66000830184612492565b92915050565b6000602082840312156124d2576124d1612116565b5b60006124e084828501612141565b91505092915050565b6000806000806080858703121561250357612502612116565b5b6000612511878288016122ef565b9450506020612522878288016122ef565b935050604061253387828801612141565b925050606061254487828801612141565b91505092959194509250565b61255981612409565b811461256457600080fd5b50565b60008135905061257681612550565b92915050565b6000806040838503121561259357612592612116565b5b60006125a1858286016122ef565b92505060206125b285828601612567565b9150509250929050565b60006040820190506125d16000830185612492565b6125de6020830184612492565b9392505050565b6000806000606084860312156125fe576125fd612116565b5b600061260c86828701612141565b935050602061261d86828701612141565b925050604061262e86828701612141565b9150509250925092565b61264181612120565b82525050565b612650816122c6565b82525050565b61265f81612409565b82525050565b6000608083016000830151848203600086015261268282826121ed565b91505060208301516126976020860182612638565b5060408301516126aa6040860182612647565b5060608301516126bd6060860182612656565b508091505092915050565b600060208201905081810360008301526126e28184612665565b905092915050565b6000806000806060858703121561270457612703612116565b5b6000612712878288016122ef565b9450506020612723878288016122ef565b935050604085013567ffffffffffffffff8111156127445761274361211b565b5b61275087828801612313565b925092505092959194509250565b612767816122c6565b82525050565b6000602082019050612782600083018461275e565b92915050565b7f4e487b7100000000000000000000000000000000000000000000000000000000600052602260045260246000fd5b600060028204905060018216806127cf57607f821691505b6020821081036127e2576127e1612788565b5b50919050565b600082825260208201905092915050565b7f455243333437353a2063616e2774206275726e2066726f6d20746865207a657260008201527f6f20616464726573730000000000000000000000000000000000000000000000602082015250565b60006128556029836127e8565b9150612860826127f9565b604082019050919050565b6000602082019050818103600083015261288481612848565b9050919050565b7f455243333437353a2063616c6c65722d6e6f742d6f776e65722d6f722d61707060008201527f726f766564000000000000000000000000000000000000000000000000000000602082015250565b60006128e76025836127e8565b91506128f28261288b565b604082019050919050565b60006020820190508181036000830152612916816128da565b9050919050565b7f4e487b7100000000000000000000000000000000000000000000000000000000600052603260045260246000fd5b600082825260208201905092915050565b6000819050919050565b60006129766020840184612141565b905092915050565b6060820161298f6000830183612967565b61299c6000850182612638565b506129aa6020830183612967565b6129b76020850182612638565b506129c56040830183612967565b6129d26040850182612638565b50505050565b60006129e4838361297e565b60608301905092915050565b600082905092915050565b6000606082019050919050565b6000612a14838561294c565b9350612a1f8261295d565b8060005b85811015612a5857612a3582846129f0565b612a3f88826129d8565b9750612a4a836129fb565b925050600181019050612a23565b5085925050509392505050565b60006020820190508181036000830152612a80818486612a08565b90509392505050565b7f455243333437353a2063616e277420697373756520746f20746865207a65726f60008201527f2061646472657373000000000000000000000000000000000000000000000000602082015250565b6000612ae56028836127e8565b9150612af082612a89565b604082019050919050565b60006020820190508181036000830152612b1481612ad8565b9050919050565b7f455243333437353a2062616c616e636520717565727920666f7220746865207a60008201527f65726f2061646472657373000000000000000000000000000000000000000000602082015250565b6000612b77602b836127e8565b9150612b8282612b1b565b604082019050919050565b60006020820190508181036000830152612ba681612b6a565b9050919050565b7f4e487b7100000000000000000000000000000000000000000000000000000000600052601160045260246000fd5b6000612be782612120565b9150612bf283612120565b9250828201905080821115612c0a57612c09612bad565b5b92915050565b6000612c1b82612120565b9150612c2683612120565b9250828203905081811115612c3e57612c3d612bad565b5b92915050565b7f455243333437353a2063616e2774207472616e736665722066726f6d2074686560008201527f207a65726f206164647265737300000000000000000000000000000000000000602082015250565b6000612ca0602d836127e8565b9150612cab82612c44565b604082019050919050565b60006020820190508181036000830152612ccf81612c93565b9050919050565b7f455243333437353a757365206275726e282920696e7374656164000000000000600082015250565b6000612d0c601a836127e8565b9150612d1782612cd6565b602082019050919050565b60006020820190508181036000830152612d3b81612cff565b9050919050565b7f455243333437353a63616c6c65722d6e6f742d6f776e65722d6f722d6170707260008201527f6f76656400000000000000000000000000000000000000000000000000000000602082015250565b6000612d9e6024836127e8565b9150612da982612d42565b604082019050919050565b60006020820190508181036000830152612dcd81612d91565b9050919050565b7f455243333437353a2063616e27742072656465656d2066726f6d20746865207a60008201527f65726f2061646472657373000000000000000000000000000000000000000000602082015250565b6000612e30602b836127e8565b9150612e3b82612dd4565b604082019050919050565b60006020820190508181036000830152612e5f81612e23565b9050919050565b7f45524333343735204572726f723a204e6f742072656465656d61626c65000000600082015250565b6000612e9c601d836127e8565b9150612ea782612e66565b602082019050919050565b60006020820190508181036000830152612ecb81612e8f565b9050919050565b7f455243333437353a2063616e2774207472616e7366657220616c6c6f7765642060008201527f616d742066726f6d207a65726f20616464726573730000000000000000000000602082015250565b6000612f2e6035836127e8565b9150612f3982612ed2565b604082019050919050565b60006020820190508181036000830152612f5d81612f21565b9050919050565b7f455243333437353a20757365206275726e282920696e73746561640000000000600082015250565b6000612f9a601b836127e8565b9150612fa582612f64565b602082019050919050565b60006020820190508181036000830152612fc981612f8d565b9050919050565b7f455243333437353a206e6f7420656e6f75676820626f6e6420746f207472616e60008201527f7366657200000000000000000000000000000000000000000000000000000000602082015250565b600061302c6024836127e8565b915061303782612fd0565b604082019050919050565b6000602082019050818103600083015261305b8161301f565b9050919050565b7f455243333437353a206e6f7420616c6c6f77656420616d6f756e740000000000600082015250565b6000613098601b836127e8565b91506130a382613062565b602082019050919050565b600060208201905081810360008301526130c78161308b565b905091905056fea2646970667358221220e176a9fb1c8e00809066c9057d55bb74805bffdca97279cf1cc6e8ec78ecf12364736f6c634300081c003364657461696c732061626f75742069737375616e636520616e6420726564656d7074696f6e2074696d65",
  "linkReferences": {},
  "deployedLinkReferences": {}
}