{
  "_format": "hh-sol-artifact-1",
  "contractName": "TrancheToken",
  "sourceName": "contracts/TokenTranche.sol",
  "abi": [
    {
      "inputs": [
        {
          "internalType": "address",
          "name": "_owner",
          "type": "address"
        }
      ],
      "stateMutability": "nonpayable",
      "type": "constructor"
    },
    {
      "anonymous": false,
      "inputs": [
        {
          "indexed": true,
          "internalType": "address",
          "name": "_owner",
          "type": "address"
        },
        {
          "indexed": true,
          "internalType": "address",
          "name": "_operator",
          "type": "address"
        },
        {
          "indexed": false,
          "internalType": "bool",
          "name": "_approved",
          "type": "bool"
        }
      ],
      "name": "ApprovalFor",
      "type": "event"
    },
    {
      "anonymous": false,
      "inputs": [
        {
          "indexed": true,
          "internalType": "address",
          "name": "_operator",
          "type": "address"
        },
        {
          "indexed": true,
          "internalType": "address",
          "name": "_from",
          "type": "address"
        },
        {
          "components": [
            {
              "internalType": "uint256",
              "name": "classId",
              "type": "uint256"
            },
            {
              "internalType": "uint256",
              "name": "nonceId",
              "type": "uint256"
            },
            {
              "internalType": "uint256",
              "name": "amount",
              "type": "uint256"
            }
          ],
          "indexed": false,
          "internalType": "struct IERC3475.Transaction[]",
          "name": "_transactions",
          "type": "tuple[]"
        }
      ],
      "name": "Burn",
      "type": "event"
    },
    {
      "anonymous": false,
      "inputs": [
        {
          "indexed": true,
          "internalType": "address",
          "name": "_operator",
          "type": "address"
        },
        {
          "indexed": true,
          "internalType": "address",
          "name": "_to",
          "type": "address"
        },
        {
          "components": [
            {
              "internalType": "uint256",
              "name": "classId",
              "type": "uint256"
            },
            {
              "internalType": "uint256",
              "name": "nonceId",
              "type": "uint256"
            },
            {
              "internalType": "uint256",
              "name": "amount",
              "type": "uint256"
            }
          ],
          "indexed": false,
          "internalType": "struct IERC3475.Transaction[]",
          "name": "_transactions",
          "type": "tuple[]"
        }
      ],
      "name": "Issue",
      "type": "event"
    },
    {
      "anonymous": false,
      "inputs": [
        {
          "indexed": true,
          "internalType": "address",
          "name": "_operator",
          "type": "address"
        },
        {
          "indexed": true,
          "internalType": "address",
          "name": "_from",
          "type": "address"
        },
        {
          "components": [
            {
              "internalType": "uint256",
              "name": "classId",
              "type": "uint256"
            },
            {
              "internalType": "uint256",
              "name": "nonceId",
              "type": "uint256"
            },
            {
              "internalType": "uint256",
              "name": "amount",
              "type": "uint256"
            }
          ],
          "indexed": false,
          "internalType": "struct IERC3475.Transaction[]",
          "name": "_transactions",
          "type": "tuple[]"
        }
      ],
      "name": "Redeem",
      "type": "event"
    },
    {
      "anonymous": false,
      "inputs": [
        {
          "indexed": true,
          "internalType": "address",
          "name": "_operator",
          "type": "address"
        },
        {
          "indexed": true,
          "internalType": "address",
          "name": "_from",
          "type": "address"
        },
        {
          "indexed": true,
          "internalType": "address",
          "name": "_to",
          "type": "address"
        },
        {
          "components": [
            {
              "internalType": "uint256",
              "name": "classId",
              "type": "uint256"
            },
            {
              "internalType": "uint256",
              "name": "nonceId",
              "type": "uint256"
            },
            {
              "internalType": "uint256",
              "name": "amount",
              "type": "uint256"
            }
          ],
          "indexed": false,
          "internalType": "struct IERC3475.Transaction[]",
          "name": "_transactions",
          "type": "tuple[]"
        }
      ],
      "name": "Transfer",
      "type": "event"
    },
    {
      "inputs": [
        {
          "internalType": "uint256",
          "name": "classId",
          "type": "uint256"
        },
        {
          "internalType": "uint256",
          "name": "nonceId",
          "type": "uint256"
        }
      ],
      "name": "activeSupply",
      "outputs": [
        {
          "internalType": "uint256",
          "name": "",
          "type": "uint256"
        }
      ],
      "stateMutability": "view",
      "type": "function"
    },
    {
      "inputs": [
        {
          "internalType": "address",
          "name": "_owner",
          "type": "address"
        },
        {
          "internalType": "address",
          "name": "spender",
          "type": "address"
        },
        {
          "internalType": "uint256",
          "name": "classId",
          "type": "uint256"
        },
        {
          "internalType": "uint256",
          "name": "nonceId",
          "type": "uint256"
        }
      ],
      "name": "allowance",
      "outputs": [
        {
          "internalType": "uint256",
          "name": "",
          "type": "uint256"
        }
      ],
      "stateMutability": "view",
      "type": "function"
    },
    {
      "inputs": [
        {
          "internalType": "address",
          "name": "_spender",
          "type": "address"
        },
        {
          "components": [
            {
              "internalType": "uint256",
              "name": "classId",
              "type": "uint256"
            },
            {
              "internalType": "uint256",
              "name": "nonceId",
              "type": "uint256"
            },
            {
              "internalType": "uint256",
              "name": "amount",
              "type": "uint256"
            }
          ],
          "internalType": "struct IERC3475.Transaction[]",
          "name": "_transactions",
          "type": "tuple[]"
        }
      ],
      "name": "approve",
      "outputs": [],
      "stateMutability": "nonpayable",
      "type": "function"
    },
    {
      "inputs": [
        {
          "internalType": "address",
          "name": "account",
          "type": "address"
        },
        {
          "internalType": "uint256",
          "name": "classId",
          "type": "uint256"
        },
        {
          "internalType": "uint256",
          "name": "nonceId",
          "type": "uint256"
        }
      ],
      "name": "balanceOf",
      "outputs": [
        {
          "internalType": "uint256",
          "name": "",
          "type": "uint256"
        }
      ],
      "stateMutability": "view",
      "type": "function"
    },
    {
      "inputs": [
        {
          "internalType": "address",
          "name": "_from",
          "type": "address"
        },
        {
          "components": [
            {
              "internalType": "uint256",
              "name": "classId",
              "type": "uint256"
            },
            {
              "internalType": "uint256",
              "name": "nonceId",
              "type": "uint256"
            },
            {
              "internalType": "uint256",
              "name": "amount",
              "type": "uint256"
            }
          ],
          "internalType": "struct IERC3475.Transaction[]",
          "name": "_transactions",
          "type": "tuple[]"
        }
      ],
      "name": "burn",
      "outputs": [],
      "stateMutability": "nonpayable",
      "type": "function"
    },
    {
      "inputs": [
        {
          "internalType": "uint256",
          "name": "classId",
          "type": "uint256"
        },
        {
          "internalType": "uint256",
          "name": "nonceId",
          "type": "uint256"
        }
      ],
      "name": "burnedSupply",
      "outputs": [
        {
          "internalType": "uint256",
          "name": "",
          "type": "uint256"
        }
      ],
      "stateMutability": "view",
      "type": "function"
    },
    {
      "inputs": [
        {
          "internalType": "uint256",
          "name": "metadataId",
          "type": "uint256"
        }
      ],
      "name": "classMetadata",
      "outputs": [
        {
          "components": [
            {
              "internalType": "string",
              "name": "title",
              "type": "string"
            },
            {
              "internalType": "string",
              "name": "_type",
              "type": "string"
            },
            {
              "internalType": "string",
              "name": "description",
              "type": "string"
            }
          ],
          "internalType": "struct IERC3475.Metadata",
          "name": "",
          "type": "tuple"
        }
      ],
      "stateMutability": "view",
      "type": "function"
    },
    {
      "inputs": [
        {
          "internalType": "uint256",
          "name": "classId",
          "type": "uint256"
        },
        {
          "internalType": "uint256",
          "name": "metadataId",
          "type": "uint256"
        }
      ],
      "name": "classValues",
      "outputs": [
        {
          "components": [
            {
              "internalType": "string",
              "name": "stringValue",
              "type": "string"
            },
            {
              "internalType": "uint256",
              "name": "uintValue",
              "type": "uint256"
            },
            {
              "internalType": "address",
              "name": "addressValue",
              "type": "address"
            },
            {
              "internalType": "bool",
              "name": "boolValue",
              "type": "bool"
            }
          ],
          "internalType": "struct IERC3475.Values",
          "name": "",
          "type": "tuple"
        }
      ],
      "stateMutability": "view",
      "type": "function"
    },
    {
      "inputs": [
        {
          "internalType": "uint256",
          "name": "classId",
          "type": "uint256"
        },
        {
          "internalType": "uint256",
          "name": "nonceId",
          "type": "uint256"
        }
      ],
      "name": "getProgress",
      "outputs": [
        {
          "internalType": "uint256",
          "name": "progressAchieved",
          "type": "uint256"
        },
        {
          "internalType": "uint256",
          "name": "progressRemaining",
          "type": "uint256"
        }
      ],
      "stateMutability": "view",
      "type": "function"
    },
    {
      "inputs": [
        {
          "internalType": "address",
          "name": "_owner",
          "type": "address"
        },
        {
          "internalType": "address",
          "name": "operator",
          "type": "address"
        }
      ],
      "name": "isApprovedFor",
      "outputs": [
        {
          "internalType": "bool",
          "name": "",
          "type": "bool"
        }
      ],
      "stateMutability": "view",
      "type": "function"
    },
    {
      "inputs": [
        {
          "internalType": "address",
          "name": "_to",
          "type": "address"
        },
        {
          "components": [
            {
              "internalType": "uint256",
              "name": "classId",
              "type": "uint256"
            },
            {
              "internalType": "uint256",
              "name": "nonceId",
              "type": "uint256"
            },
            {
              "internalType": "uint256",
              "name": "amount",
              "type": "uint256"
            }
          ],
          "internalType": "struct IERC3475.Transaction[]",
          "name": "_transactions",
          "type": "tuple[]"
        }
      ],
      "name": "issue",
      "outputs": [],
      "stateMutability": "nonpayable",
      "type": "function"
    },
    {
      "inputs": [
        {
          "internalType": "uint256",
          "name": "classId",
          "type": "uint256"
        },
        {
          "internalType": "uint256",
          "name": "metadataId",
          "type": "uint256"
        }
      ],
      "name": "nonceMetadata",
      "outputs": [
        {
          "components": [
            {
              "internalType": "string",
              "name": "title",
              "type": "string"
            },
            {
              "internalType": "string",
              "name": "_type",
              "type": "string"
            },
            {
              "internalType": "string",
              "name": "description",
              "type": "string"
            }
          ],
          "internalType": "struct IERC3475.Metadata",
          "name": "",
          "type": "tuple"
        }
      ],
      "stateMutability": "view",
      "type": "function"
    },
    {
      "inputs": [
        {
          "internalType": "uint256",
          "name": "classId",
          "type": "uint256"
        },
        {
          "internalType": "uint256",
          "name": "nonceId",
          "type": "uint256"
        },
        {
          "internalType": "uint256",
          "name": "metadataId",
          "type": "uint256"
        }
      ],
      "name": "nonceValues",
      "outputs": [
        {
          "components": [
            {
              "internalType": "string",
              "name": "stringValue",
              "type": "string"
            },
            {
              "internalType": "uint256",
              "name": "uintValue",
              "type": "uint256"
            },
            {
              "internalType": "address",
              "name": "addressValue",
              "type": "address"
            },
            {
              "internalType": "bool",
              "name": "boolValue",
              "type": "bool"
            }
          ],
          "internalType": "struct IERC3475.Values",
          "name": "",
          "type": "tuple"
        }
      ],
      "stateMutability": "view",
      "type": "function"
    },
    {
      "inputs": [],
      "name": "owner",
      "outputs": [
        {
          "internalType": "address",
          "name": "",
          "type": "address"
        }
      ],
      "stateMutability": "view",
      "type": "function"
    },
    {
      "inputs": [
        {
          "internalType": "address",
          "name": "_from",
          "type": "address"
        },
        {
          "components": [
            {
              "internalType": "uint256",
              "name": "classId",
              "type": "uint256"
            },
            {
              "internalType": "uint256",
              "name": "nonceId",
              "type": "uint256"
            },
            {
              "internalType": "uint256",
              "name": "amount",
              "type": "uint256"
            }
          ],
          "internalType": "struct IERC3475.Transaction[]",
          "name": "_transactions",
          "type": "tuple[]"
        }
      ],
      "name": "redeem",
      "outputs": [],
      "stateMutability": "nonpayable",
      "type": "function"
    },
    {
      "inputs": [
        {
          "internalType": "uint256",
          "name": "classId",
          "type": "uint256"
        },
        {
          "internalType": "uint256",
          "name": "nonceId",
          "type": "uint256"
        }
      ],
      "name": "redeemedSupply",
      "outputs": [
        {
          "internalType": "uint256",
          "name": "",
          "type": "uint256"
        }
      ],
      "stateMutability": "view",
      "type": "function"
    },
    {
      "inputs": [
        {
          "internalType": "address",
          "name": "operator",
          "type": "address"
        },
        {
          "internalType": "bool",
          "name": "approved",
          "type": "bool"
        }
      ],
      "name": "setApprovalFor",
      "outputs": [],
      "stateMutability": "nonpayable",
      "type": "function"
    },
    {
      "inputs": [
        {
          "internalType": "uint256",
          "name": "classId",
          "type": "uint256"
        },
        {
          "internalType": "uint256",
          "name": "nonceId",
          "type": "uint256"
        }
      ],
      "name": "totalSupply",
      "outputs": [
        {
          "internalType": "uint256",
          "name": "",
          "type": "uint256"
        }
      ],
      "stateMutability": "view",
      "type": "function"
    },
    {
      "inputs": [
        {
          "internalType": "address",
          "name": "_from",
          "type": "address"
        },
        {
          "internalType": "address",
          "name": "_to",
          "type": "address"
        },
        {
          "components": [
            {
              "internalType": "uint256",
              "name": "classId",
              "type": "uint256"
            },
            {
              "internalType": "uint256",
              "name": "nonceId",
              "type": "uint256"
            },
            {
              "internalType": "uint256",
              "name": "amount",
              "type": "uint256"
            }
          ],
          "internalType": "struct IERC3475.Transaction[]",
          "name": "_transactions",
          "type": "tuple[]"
        }
      ],
      "name": "transferAllowanceFrom",
      "outputs": [],
      "stateMutability": "nonpayable",
      "type": "function"
    },
    {
      "inputs": [
        {
          "internalType": "address",
          "name": "_from",
          "type": "address"
        },
        {
          "internalType": "address",
          "name": "_to",
          "type": "address"
        },
        {
          "components": [
            {
              "internalType": "uint256",
              "name": "classId",
              "type": "uint256"
            },
            {
              "internalType": "uint256",
              "name": "nonceId",
              "type": "uint256"
            },
            {
              "internalType": "uint256",
              "name": "amount",
              "type": "uint256"
            }
          ],
          "internalType": "struct IERC3475.Transaction[]",
          "name": "_transactions",
          "type": "tuple[]"
        }
      ],
      "name": "transferFrom",
      "outputs": [],
      "stateMutability": "nonpayable",
      "type": "function"
    }
  ],
  "bytecode": "0x608060405234801561001057600080fd5b50604051613f8d380380613f8d83398181016040528101906100329190610a9e565b6040518060400160405280600681526020017f73796d626f6c000000000000000000000000000000000000000000000000000081525060026000808152602001908152602001600020600001908161008a9190610d1b565b506040518060400160405280600681526020017f737472696e6700000000000000000000000000000000000000000000000000008152506002600080815260200190815260200160002060010190816100e39190610d1b565b506040518060400160405280601381526020017f73796d626f6c206f662074686520636c6173730000000000000000000000000081525060026000808152602001908152602001600020600201908161013c9190610d1b565b506040518060400160405280600b81526020017f444249542046697820364d00000000000000000000000000000000000000000081525060016000808152602001908152602001600020600001600080815260200190815260200160002060000190816101a99190610d1b565b506040518060400160405280600681526020017f73796d626f6c0000000000000000000000000000000000000000000000000000815250600260006001815260200190815260200160002060000190816102039190610d1b565b506040518060400160405280600681526020017f737472696e6700000000000000000000000000000000000000000000000000008152506002600060018152602001908152602001600020600101908161025d9190610d1b565b506040518060400160405280601381526020017f73796d626f6c206f662074686520636c61737300000000000000000000000000815250600260006001815260200190815260200160002060020190816102b79190610d1b565b506040518060400160405280601b81526020017f4442495420466978207465737420496e7374616e74616e656f757300000000008152506001600060018152602001908152602001600020600001600080815260200190815260200160002060000190816103259190610d1b565b506040518060400160405280600681526020017f706572696f6400000000000000000000000000000000000000000000000000008152506002600060058152602001908152602001600020600001908161037f9190610d1b565b506040518060400160405280600381526020017f696e740000000000000000000000000000000000000000000000000000000000815250600260006005815260200190815260200160002060010190816103d99190610d1b565b506040518060600160405280602a8152602001613f63602a9139600260006005815260200190815260200160002060020190816104169190610d1b565b50600a60016000808152602001908152602001600020600001600060058152602001908152602001600020600101819055506001806000600181526020019081526020016000206000016000600581526020019081526020016000206001018190555062ed4e00426104889190610e1c565b60016000808152602001908152602001600020600201600080815260200190815260200160002060000160008081526020019081526020016000206001018190555062ee9f80426104d99190610e1c565b6001600080815260200190815260200160002060020160006001815260200190815260200160002060000160008081526020019081526020016000206001018190555062eff1004261052b9190610e1c565b6001600080815260200190815260200160002060020160006002815260200190815260200160002060000160008081526020019081526020016000206001018190555060014261057b9190610e1c565b600160006001815260200190815260200160002060020160008081526020019081526020016000206000016000808152602001908152602001600020600101819055506002426105cb9190610e1c565b600160006001815260200190815260200160002060020160006001815260200190815260200160002060000160008081526020019081526020016000206001018190555060034261061c9190610e1c565b60016000600181526020019081526020016000206002016000600281526020019081526020016000206000016000808152602001908152602001600020600101819055506040518060400160405280600881526020017f6d6174757269747900000000000000000000000000000000000000000000000081525060016000808152602001908152602001600020600101600080815260200190815260200160002060000190816106cc9190610d1b565b506040518060400160405280600381526020017f696e74000000000000000000000000000000000000000000000000000000000081525060016000808152602001908152602001600020600101600080815260200190815260200160002060010190816107399190610d1b565b506040518060400160405280601881526020017f6d61747572697479206461746520696e20696e7465676572000000000000000081525060016000808152602001908152602001600020600101600080815260200190815260200160002060020190816107a69190610d1b565b506040518060400160405280600881526020017f6d617475726974790000000000000000000000000000000000000000000000008152506001600060018152602001908152602001600020600101600080815260200190815260200160002060000190816108149190610d1b565b506040518060400160405280600381526020017f696e74000000000000000000000000000000000000000000000000000000000081525060016000808152602001908152602001600020600101600080815260200190815260200160002060010190816108819190610d1b565b506040518060400160405280601881526020017f6d61747572697479206461746520696e20696e746567657200000000000000008152506001600060018152602001908152602001600020600101600080815260200190815260200160002060020190816108ef9190610d1b565b5060018060008081526020019081526020016000206002016000808152602001908152602001600020600001600080815260200190815260200160002060020160146101000a81548160ff0219169083151502179055506001806000808152602001908152602001600020600201600060018152602001908152602001600020600001600080815260200190815260200160002060020160146101000a81548160ff0219169083151502179055506001806000808152602001908152602001600020600201600060028152602001908152602001600020600001600080815260200190815260200160002060020160146101000a81548160ff02191690831515021790555080600360006101000a81548173ffffffffffffffffffffffffffffffffffffffff021916908373ffffffffffffffffffffffffffffffffffffffff16021790555050610e50565b600080fd5b600073ffffffffffffffffffffffffffffffffffffffff82169050919050565b6000610a6b82610a40565b9050919050565b610a7b81610a60565b8114610a8657600080fd5b50565b600081519050610a9881610a72565b92915050565b600060208284031215610ab457610ab3610a3b565b5b6000610ac284828501610a89565b91505092915050565b600081519050919050565b7f4e487b7100000000000000000000000000000000000000000000000000000000600052604160045260246000fd5b7f4e487b7100000000000000000000000000000000000000000000000000000000600052602260045260246000fd5b60006002820490506001821680610b4c57607f821691505b602082108103610b5f57610b5e610b05565b5b50919050565b60008190508160005260206000209050919050565b60006020601f8301049050919050565b600082821b905092915050565b600060088302610bc77fffffffffffffffffffffffffffffffffffffffffffffffffffffffffffffffff82610b8a565b610bd18683610b8a565b95508019841693508086168417925050509392505050565b6000819050919050565b6000819050919050565b6000610c18610c13610c0e84610be9565b610bf3565b610be9565b9050919050565b6000819050919050565b610c3283610bfd565b610c46610c3e82610c1f565b848454610b97565b825550505050565b600090565b610c5b610c4e565b610c66818484610c29565b505050565b5b81811015610c8a57610c7f600082610c53565b600181019050610c6c565b5050565b601f821115610ccf57610ca081610b65565b610ca984610b7a565b81016020851015610cb8578190505b610ccc610cc485610b7a565b830182610c6b565b50505b505050565b600082821c905092915050565b6000610cf260001984600802610cd4565b1980831691505092915050565b6000610d0b8383610ce1565b9150826002028217905092915050565b610d2482610acb565b67ffffffffffffffff811115610d3d57610d3c610ad6565b5b610d478254610b34565b610d52828285610c8e565b600060209050601f831160018114610d855760008415610d73578287015190505b610d7d8582610cff565b865550610de5565b601f198416610d9386610b65565b60005b82811015610dbb57848901518255600182019150602085019450602081019050610d96565b86831015610dd85784890151610dd4601f891682610ce1565b8355505b6001600288020188555050505b505050505050565b7f4e487b7100000000000000000000000000000000000000000000000000000000600052601160045260246000fd5b6000610e2782610be9565b9150610e3283610be9565b9250828201905080821115610e4a57610e49610ded565b5b92915050565b61310480610e5f6000396000f3fe608060405234801561001057600080fd5b506004361061012c5760003560e01c80637228cfaf116100ad578063bc3c19f711610071578063bc3c19f714610378578063c2458d6b146103a8578063c7da92e1146103d8578063ccea7b8614610408578063f3273696146104385761012c565b80637228cfaf146102d657806388dad954146102f25780638da5cb5b1461030e5780639d3fed381461032c578063b15edbe5146103485761012c565b80633cf3a604116100f45780633cf3a604146101f9578063443b63b9146102295780634bb95aa214610259578063572e5ef214610275578063693f5548146102a65761012c565b8063029ba4eb146101315780630d345f4f1461016157806319ab39391461017d5780631fa03a2b146101995780632d760d57146101c9575b600080fd5b61014b60048036038101906101469190612156565b610454565b6040516101589190612284565b60405180910390f35b61017b60048036038101906101769190612369565b61064c565b005b61019760048036038101906101929190612369565b6107ea565b005b6101b360048036038101906101ae91906123c9565b610909565b6040516101c09190612424565b60405180910390f35b6101e360048036038101906101de919061243f565b61099c565b6040516101f091906124a1565b60405180910390f35b610213600480360381019061020e91906124bc565b610a7d565b6040516102209190612284565b60405180910390f35b610243600480360381019061023e91906124e9565b610c60565b60405161025091906124a1565b60405180910390f35b610273600480360381019061026e919061257c565b610d11565b005b61028f600480360381019061028a9190612156565b610e0d565b60405161029d9291906125bc565b60405180910390f35b6102c060048036038101906102bb91906125e5565b610ed6565b6040516102cd91906126c8565b60405180910390f35b6102f060048036038101906102eb9190612369565b61103a565b005b61030c600480360381019061030791906126ea565b611158565b005b61031661137e565b604051610323919061276d565b60405180910390f35b61034660048036038101906103419190612369565b6113a4565b005b610362600480360381019061035d9190612156565b61154e565b60405161036f91906124a1565b60405180910390f35b610392600480360381019061038d9190612156565b611583565b60405161039f91906124a1565b60405180910390f35b6103c260048036038101906103bd9190612156565b6115b8565b6040516103cf91906124a1565b60405180910390f35b6103f260048036038101906103ed9190612156565b6115f4565b6040516103ff91906126c8565b60405180910390f35b610422600480360381019061041d9190612156565b611743565b60405161042f91906124a1565b60405180910390f35b610452600480360381019061044d91906126ea565b611778565b005b61045c6120b5565b60016000848152602001908152602001600020600101600083815260200190815260200160002060405180606001604052908160008201805461049e906127b7565b80601f01602080910402602001604051908101604052809291908181526020018280546104ca906127b7565b80156105175780601f106104ec57610100808354040283529160200191610517565b820191906000526020600020905b8154815290600101906020018083116104fa57829003601f168201915b50505050508152602001600182018054610530906127b7565b80601f016020809104026020016040519081016040528092919081815260200182805461055c906127b7565b80156105a95780601f1061057e576101008083540402835291602001916105a9565b820191906000526020600020905b81548152906001019060200180831161058c57829003601f168201915b505050505081526020016002820180546105c2906127b7565b80601f01602080910402602001604051908101604052809291908181526020018280546105ee906127b7565b801561063b5780601f106106105761010080835404028352916020019161063b565b820191906000526020600020905b81548152906001019060200180831161061e57829003601f168201915b505050505081525050905092915050565b600073ffffffffffffffffffffffffffffffffffffffff168373ffffffffffffffffffffffffffffffffffffffff16036106bb576040517f08c379a00000000000000000000000000000000000000000000000000000000081526004016106b29061286b565b60405180910390fd5b8273ffffffffffffffffffffffffffffffffffffffff163373ffffffffffffffffffffffffffffffffffffffff1614806106fb57506106fa8333610909565b5b61073a576040517f08c379a0000000000000000000000000000000000000000000000000000000008152600401610731906128fd565b60405180910390fd5b600082829050905060005b8181101561077c5761076f858585848181106107645761076361291d565b5b9050606002016119c2565b8080600101915050610745565b508373ffffffffffffffffffffffffffffffffffffffff163373ffffffffffffffffffffffffffffffffffffffff167f854463ea9c50bdbcc2ee7d49731da876b9a8a76ac599ea54b87fc3bf49dd4bbc85856040516107dc929190612a65565b60405180910390a350505050565b600082829050905060005b8181101561089b57600073ffffffffffffffffffffffffffffffffffffffff168573ffffffffffffffffffffffffffffffffffffffff160361086c576040517f08c379a000000000000000000000000000000000000000000000000000000000815260040161086390612afb565b60405180910390fd5b61088e858585848181106108835761088261291d565b5b905060600201611b1c565b80806001019150506107f5565b508373ffffffffffffffffffffffffffffffffffffffff163373ffffffffffffffffffffffffffffffffffffffff167f4623e64c229a38d0d39f345a5636f4aaad36652b7a59cc3cfee2b2e2cf37bdf385856040516108fb929190612a65565b60405180910390a350505050565b60008060008473ffffffffffffffffffffffffffffffffffffffff1673ffffffffffffffffffffffffffffffffffffffff16815260200190815260200160002060008373ffffffffffffffffffffffffffffffffffffffff1673ffffffffffffffffffffffffffffffffffffffff16815260200190815260200160002060009054906101000a900460ff16905092915050565b60008073ffffffffffffffffffffffffffffffffffffffff168473ffffffffffffffffffffffffffffffffffffffff1603610a0c576040517f08c379a0000000000000000000000000000000000000000000000000000000008152600401610a0390612b8d565b60405180910390fd5b60016000848152602001908152602001600020600201600083815260200190815260200160002060010160008573ffffffffffffffffffffffffffffffffffffffff1673ffffffffffffffffffffffffffffffffffffffff1681526020019081526020016000205490509392505050565b610a856120b5565b60026000838152602001908152602001600020604051806060016040529081600082018054610ab3906127b7565b80601f0160208091040260200160405190810160405280929190818152602001828054610adf906127b7565b8015610b2c5780601f10610b0157610100808354040283529160200191610b2c565b820191906000526020600020905b815481529060010190602001808311610b0f57829003601f168201915b50505050508152602001600182018054610b45906127b7565b80601f0160208091040260200160405190810160405280929190818152602001828054610b71906127b7565b8015610bbe5780601f10610b9357610100808354040283529160200191610bbe565b820191906000526020600020905b815481529060010190602001808311610ba157829003601f168201915b50505050508152602001600282018054610bd7906127b7565b80601f0160208091040260200160405190810160405280929190818152602001828054610c03906127b7565b8015610c505780601f10610c2557610100808354040283529160200191610c50565b820191906000526020600020905b815481529060010190602001808311610c3357829003601f168201915b5050505050815250509050919050565b600060016000848152602001908152602001600020600201600083815260200190815260200160002060020160008673ffffffffffffffffffffffffffffffffffffffff1673ffffffffffffffffffffffffffffffffffffffff16815260200190815260200160002060008573ffffffffffffffffffffffffffffffffffffffff1673ffffffffffffffffffffffffffffffffffffffff168152602001908152602001600020549050949350505050565b806000803373ffffffffffffffffffffffffffffffffffffffff1673ffffffffffffffffffffffffffffffffffffffff16815260200190815260200160002060008473ffffffffffffffffffffffffffffffffffffffff1673ffffffffffffffffffffffffffffffffffffffff16815260200190815260200160002060006101000a81548160ff0219169083151502179055508173ffffffffffffffffffffffffffffffffffffffff163373ffffffffffffffffffffffffffffffffffffffff167f3a950f10bb6df353a4ab85913de7c26461edd1b6250912c3ddcbe92b9164358483604051610e019190612424565b60405180910390a35050565b6000806000600160008681526020019081526020016000206002016000858152602001908152602001600020600001600080815260200190815260200160002060010154905060006001600087815260200190815260200160002060020160008681526020019081526020016000206000016000600581526020019081526020016000206001015482610ea09190612bdc565b90508142610eae9190612c10565b9350804210610ebe576000610ecb565b4281610eca9190612c10565b5b925050509250929050565b610ede6120d6565b6001600085815260200190815260200160002060020160008481526020019081526020016000206000016000838152602001908152602001600020604051806080016040529081600082018054610f34906127b7565b80601f0160208091040260200160405190810160405280929190818152602001828054610f60906127b7565b8015610fad5780601f10610f8257610100808354040283529160200191610fad565b820191906000526020600020905b815481529060010190602001808311610f9057829003601f168201915b50505050508152602001600182015481526020016002820160009054906101000a900473ffffffffffffffffffffffffffffffffffffffff1673ffffffffffffffffffffffffffffffffffffffff1673ffffffffffffffffffffffffffffffffffffffff1681526020016002820160149054906101000a900460ff16151515158152505090509392505050565b60005b828290508110156111525782828281811061105b5761105a61291d565b5b905060600201604001356001600085858581811061107c5761107b61291d565b5b90506060020160000135815260200190815260200160002060020160008585858181106110ac576110ab61291d565b5b90506060020160200135815260200190815260200160002060020160003373ffffffffffffffffffffffffffffffffffffffff1673ffffffffffffffffffffffffffffffffffffffff16815260200190815260200160002060008673ffffffffffffffffffffffffffffffffffffffff1673ffffffffffffffffffffffffffffffffffffffff16815260200190815260200160002081905550808060010191505061103d565b50505050565b600073ffffffffffffffffffffffffffffffffffffffff168473ffffffffffffffffffffffffffffffffffffffff16036111c7576040517f08c379a00000000000000000000000000000000000000000000000000000000081526004016111be90612cb6565b60405180910390fd5b600073ffffffffffffffffffffffffffffffffffffffff168373ffffffffffffffffffffffffffffffffffffffff1603611236576040517f08c379a000000000000000000000000000000000000000000000000000000000815260040161122d90612d22565b60405180910390fd5b8373ffffffffffffffffffffffffffffffffffffffff163373ffffffffffffffffffffffffffffffffffffffff16148061127657506112758433610909565b5b6112b5576040517f08c379a00000000000000000000000000000000000000000000000000000000081526004016112ac90612db4565b60405180910390fd5b600082829050905060005b818110156112f8576112eb86868686858181106112e0576112df61291d565b5b905060600201611bcf565b80806001019150506112c0565b508373ffffffffffffffffffffffffffffffffffffffff168573ffffffffffffffffffffffffffffffffffffffff163373ffffffffffffffffffffffffffffffffffffffff167f75fabf31534d6cddc003931b8cffc1effeea3ee3125535e609d386c8bf9ebdc4868660405161136f929190612a65565b60405180910390a45050505050565b600360009054906101000a900473ffffffffffffffffffffffffffffffffffffffff1681565b600073ffffffffffffffffffffffffffffffffffffffff168373ffffffffffffffffffffffffffffffffffffffff1603611413576040517f08c379a000000000000000000000000000000000000000000000000000000000815260040161140a90612e46565b60405180910390fd5b600082829050905060005b818110156114e057600061146a85858481811061143e5761143d61291d565b5b9050606002016000013586868581811061145b5761145a61291d565b5b90506060020160200135610e0d565b915050600081146114b0576040517f08c379a00000000000000000000000000000000000000000000000000000000081526004016114a790612eb2565b60405180910390fd5b6114d2868686858181106114c7576114c661291d565b5b905060600201611d48565b50808060010191505061141e565b508373ffffffffffffffffffffffffffffffffffffffff163373ffffffffffffffffffffffffffffffffffffffff167f9f652ddea6a7fd228f90e8d46f86b0e86d8299f8ca1415c7d6ab58bbe1cd632c8585604051611540929190612a65565b60405180910390a350505050565b600060016000848152602001908152602001600020600201600083815260200190815260200160002060030154905092915050565b600060016000848152602001908152602001600020600201600083815260200190815260200160002060040154905092915050565b60006115c48383611743565b6115ce8484611583565b6115d8858561154e565b6115e29190612bdc565b6115ec9190612bdc565b905092915050565b6115fc6120d6565b60016000848152602001908152602001600020600001600083815260200190815260200160002060405180608001604052908160008201805461163e906127b7565b80601f016020809104026020016040519081016040528092919081815260200182805461166a906127b7565b80156116b75780601f1061168c576101008083540402835291602001916116b7565b820191906000526020600020905b81548152906001019060200180831161169a57829003601f168201915b50505050508152602001600182015481526020016002820160009054906101000a900473ffffffffffffffffffffffffffffffffffffffff1673ffffffffffffffffffffffffffffffffffffffff1673ffffffffffffffffffffffffffffffffffffffff1681526020016002820160149054906101000a900460ff161515151581525050905092915050565b600060016000848152602001908152602001600020600201600083815260200190815260200160002060050154905092915050565b600073ffffffffffffffffffffffffffffffffffffffff168473ffffffffffffffffffffffffffffffffffffffff16036117e7576040517f08c379a00000000000000000000000000000000000000000000000000000000081526004016117de90612f44565b60405180910390fd5b600073ffffffffffffffffffffffffffffffffffffffff168373ffffffffffffffffffffffffffffffffffffffff1603611856576040517f08c379a000000000000000000000000000000000000000000000000000000000815260040161184d90612fb0565b60405180910390fd5b600082829050905060005b8181101561193c576118ad86338686858181106118815761188061291d565b5b9050606002016000013587878681811061189e5761189d61291d565b5b90506060020160200135610c60565b8484838181106118c0576118bf61291d565b5b90506060020160400135111561190b576040517f08c379a000000000000000000000000000000000000000000000000000000000815260040161190290612db4565b60405180910390fd5b61192f3387878787868181106119245761192361291d565b5b905060600201611ea2565b8080600101915050611861565b508373ffffffffffffffffffffffffffffffffffffffff168573ffffffffffffffffffffffffffffffffffffffff163373ffffffffffffffffffffffffffffffffffffffff167f75fabf31534d6cddc003931b8cffc1effeea3ee3125535e609d386c8bf9ebdc486866040516119b3929190612a65565b60405180910390a45050505050565b60006001600083600001358152602001908152602001600020600201600083602001358152602001908152602001600020905081604001358160010160008573ffffffffffffffffffffffffffffffffffffffff1673ffffffffffffffffffffffffffffffffffffffff168152602001908152602001600020541015611a7d576040517f08c379a0000000000000000000000000000000000000000000000000000000008152600401611a7490613042565b60405180910390fd5b81604001358160010160008573ffffffffffffffffffffffffffffffffffffffff1673ffffffffffffffffffffffffffffffffffffffff1681526020019081526020016000206000828254611ad29190612c10565b925050819055508160400135816003016000828254611af19190612c10565b925050819055508160400135816004016000828254611b109190612bdc565b92505081905550505050565b60006001600083600001358152602001908152602001600020600201600083602001358152602001908152602001600020905081604001358160010160008573ffffffffffffffffffffffffffffffffffffffff1673ffffffffffffffffffffffffffffffffffffffff1681526020019081526020016000206000828254611ba49190612bdc565b925050819055508160400135816003016000828254611bc39190612bdc565b92505081905550505050565b60006001600083600001358152602001908152602001600020600201600083602001358152602001908152602001600020905081604001358160010160008673ffffffffffffffffffffffffffffffffffffffff1673ffffffffffffffffffffffffffffffffffffffff168152602001908152602001600020541015611c8a576040517f08c379a0000000000000000000000000000000000000000000000000000000008152600401611c8190613042565b60405180910390fd5b81604001358160010160008673ffffffffffffffffffffffffffffffffffffffff1673ffffffffffffffffffffffffffffffffffffffff1681526020019081526020016000206000828254611cdf9190612c10565b9250508190555081604001358160010160008573ffffffffffffffffffffffffffffffffffffffff1673ffffffffffffffffffffffffffffffffffffffff1681526020019081526020016000206000828254611d3b9190612bdc565b9250508190555050505050565b60006001600083600001358152602001908152602001600020600201600083602001358152602001908152602001600020905081604001358160010160008573ffffffffffffffffffffffffffffffffffffffff1673ffffffffffffffffffffffffffffffffffffffff168152602001908152602001600020541015611e03576040517f08c379a0000000000000000000000000000000000000000000000000000000008152600401611dfa90613042565b60405180910390fd5b81604001358160010160008573ffffffffffffffffffffffffffffffffffffffff1673ffffffffffffffffffffffffffffffffffffffff1681526020019081526020016000206000828254611e589190612c10565b925050819055508160400135816003016000828254611e779190612c10565b925050819055508160400135816005016000828254611e969190612bdc565b92505081905550505050565b60006001600083600001358152602001908152602001600020600201600083602001358152602001908152602001600020905081604001358160010160008673ffffffffffffffffffffffffffffffffffffffff1673ffffffffffffffffffffffffffffffffffffffff168152602001908152602001600020541015611f5d576040517f08c379a0000000000000000000000000000000000000000000000000000000008152600401611f54906130ae565b60405180910390fd5b81604001358160020160008673ffffffffffffffffffffffffffffffffffffffff1673ffffffffffffffffffffffffffffffffffffffff16815260200190815260200160002060008773ffffffffffffffffffffffffffffffffffffffff1673ffffffffffffffffffffffffffffffffffffffff1681526020019081526020016000206000828254611fef9190612c10565b9250508190555081604001358160010160008673ffffffffffffffffffffffffffffffffffffffff1673ffffffffffffffffffffffffffffffffffffffff168152602001908152602001600020600082825461204b9190612c10565b9250508190555081604001358160010160008573ffffffffffffffffffffffffffffffffffffffff1673ffffffffffffffffffffffffffffffffffffffff16815260200190815260200160002060008282546120a79190612bdc565b925050819055505050505050565b60405180606001604052806060815260200160608152602001606081525090565b60405180608001604052806060815260200160008152602001600073ffffffffffffffffffffffffffffffffffffffff1681526020016000151581525090565b600080fd5b600080fd5b6000819050919050565b61213381612120565b811461213e57600080fd5b50565b6000813590506121508161212a565b92915050565b6000806040838503121561216d5761216c612116565b5b600061217b85828601612141565b925050602061218c85828601612141565b9150509250929050565b600081519050919050565b600082825260208201905092915050565b60005b838110156121d05780820151818401526020810190506121b5565b60008484015250505050565b6000601f19601f8301169050919050565b60006121f882612196565b61220281856121a1565b93506122128185602086016121b2565b61221b816121dc565b840191505092915050565b6000606083016000830151848203600086015261224382826121ed565b9150506020830151848203602086015261225d82826121ed565b9150506040830151848203604086015261227782826121ed565b9150508091505092915050565b6000602082019050818103600083015261229e8184612226565b905092915050565b600073ffffffffffffffffffffffffffffffffffffffff82169050919050565b60006122d1826122a6565b9050919050565b6122e1816122c6565b81146122ec57600080fd5b50565b6000813590506122fe816122d8565b92915050565b600080fd5b600080fd5b600080fd5b60008083601f84011261232957612328612304565b5b8235905067ffffffffffffffff81111561234657612345612309565b5b6020830191508360608202830111156123625761236161230e565b5b9250929050565b60008060006040848603121561238257612381612116565b5b6000612390868287016122ef565b935050602084013567ffffffffffffffff8111156123b1576123b061211b565b5b6123bd86828701612313565b92509250509250925092565b600080604083850312156123e0576123df612116565b5b60006123ee858286016122ef565b92505060206123ff858286016122ef565b9150509250929050565b60008115159050919050565b61241e81612409565b82525050565b60006020820190506124396000830184612415565b92915050565b60008060006060848603121561245857612457612116565b5b6000612466868287016122ef565b935050602061247786828701612141565b925050604061248886828701612141565b9150509250925092565b61249b81612120565b82525050565b60006020820190506124b66000830184612492565b92915050565b6000602082840312156124d2576124d1612116565b5b60006124e084828501612141565b91505092915050565b6000806000806080858703121561250357612502612116565b5b6000612511878288016122ef565b9450506020612522878288016122ef565b935050604061253387828801612141565b925050606061254487828801612141565b91505092959194509250565b61255981612409565b811461256457600080fd5b50565b60008135905061257681612550565b92915050565b6000806040838503121561259357612592612116565b5b60006125a1858286016122ef565b92505060206125b285828601612567565b9150509250929050565b60006040820190506125d16000830185612492565b6125de6020830184612492565b9392505050565b6000806000606084860312156125fe576125fd612116565b5b600061260c86828701612141565b935050602061261d86828701612141565b925050604061262e86828701612141565b9150509250925092565b61264181612120565b82525050565b612650816122c6565b82525050565b61265f81612409565b82525050565b6000608083016000830151848203600086015261268282826121ed565b91505060208301516126976020860182612638565b5060408301516126aa6040860182612647565b5060608301516126bd6060860182612656565b508091505092915050565b600060208201905081810360008301526126e28184612665565b905092915050565b6000806000806060858703121561270457612703612116565b5b6000612712878288016122ef565b9450506020612723878288016122ef565b935050604085013567ffffffffffffffff8111156127445761274361211b565b5b61275087828801612313565b925092505092959194509250565b612767816122c6565b82525050565b6000602082019050612782600083018461275e565b92915050565b7f4e487b7100000000000000000000000000000000000000000000000000000000600052602260045260246000fd5b600060028204905060018216806127cf57607f821691505b6020821081036127e2576127e1612788565b5b50919050565b600082825260208201905092915050565b7f455243333437353a2063616e2774206275726e2066726f6d20746865207a657260008201527f6f20616464726573730000000000000000000000000000000000000000000000602082015250565b60006128556029836127e8565b9150612860826127f9565b604082019050919050565b6000602082019050818103600083015261288481612848565b9050919050565b7f455243333437353a2063616c6c65722d6e6f742d6f776e65722d6f722d61707060008201527f726f766564000000000000000000000000000000000000000000000000000000602082015250565b60006128e76025836127e8565b91506128f28261288b565b604082019050919050565b60006020820190508181036000830152612916816128da565b9050919050565b7f4e487b7100000000000000000000000000000000000000000000000000000000600052603260045260246000fd5b600082825260208201905092915050565b6000819050919050565b60006129766020840184612141565b905092915050565b6060820161298f6000830183612967565b61299c6000850182612638565b506129aa6020830183612967565b6129b76020850182612638565b506129c56040830183612967565b6129d26040850182612638565b50505050565b60006129e4838361297e565b60608301905092915050565b600082905092915050565b6000606082019050919050565b6000612a14838561294c565b9350612a1f8261295d565b8060005b85811015612a5857612a3582846129f0565b612a3f88826129d8565b9750612a4a836129fb565b925050600181019050612a23565b5085925050509392505050565b60006020820190508181036000830152612a80818486612a08565b90509392505050565b7f455243333437353a2063616e277420697373756520746f20746865207a65726f60008201527f2061646472657373000000000000000000000000000000000000000000000000602082015250565b6000612ae56028836127e8565b9150612af082612a89565b604082019050919050565b60006020820190508181036000830152612b1481612ad8565b9050919050565b7f455243333437353a2062616c616e636520717565727920666f7220746865207a60008201527f65726f2061646472657373000000000000000000000000000000000000000000602082015250565b6000612b77602b836127e8565b9150612b8282612b1b565b604082019050919050565b60006020820190508181036000830152612ba681612b6a565b9050919050565b7f4e487b7100000000000000000000000000000000000000000000000000000000600052601160045260246000fd5b6000612be782612120565b9150612bf283612120565b9250828201905080821115612c0a57612c09612bad565b5b92915050565b6000612c1b82612120565b9150612c2683612120565b9250828203905081811115612c3e57612c3d612bad565b5b92915050565b7f455243333437353a2063616e2774207472616e736665722066726f6d2074686560008201527f207a65726f206164647265737300000000000000000000000000000000000000602082015250565b6000612ca0602d836127e8565b9150612cab82612c44565b604082019050919050565b60006020820190508181036000830152612ccf81612c93565b9050919050565b7f455243333437353a757365206275726e282920696e7374656164000000000000600082015250565b6000612d0c601a836127e8565b9150612d1782612cd6565b602082019050919050565b60006020820190508181036000830152612d3b81612cff565b9050919050565b7f455243333437353a63616c6c65722d6e6f742d6f776e65722d6f722d6170707260008201527f6f76656400000000000000000000000000000000000000000000000000000000602082015250565b6000612d9e6024836127e8565b9150612da982612d42565b604082019050919050565b60006020820190508181036000830152612dcd81612d91565b9050919050565b7f455243333437353a2063616e27742072656465656d2066726f6d20746865207a60008201527f65726f2061646472657373000000000000000000000000000000000000000000602082015250565b6000612e30602b836127e8565b9150612e3b82612dd4565b604082019050919050565b60006020820190508181036000830152612e5f81612e23565b9050919050565b7f45524333343735204572726f723a204e6f742072656465656d61626c65000000600082015250565b6000612e9c601d836127e8565b9150612ea782612e66565b602082019050919050565b60006020820190508181036000830152612ecb81612e8f565b9050919050565b7f455243333437353a2063616e2774207472616e7366657220616c6c6f7765642060008201527f616d742066726f6d207a65726f20616464726573730000000000000000000000602082015250565b6000612f2e6035836127e8565b9150612f3982612ed2565b604082019050919050565b60006020820190508181036000830152612f5d81612f21565b9050919050565b7f455243333437353a20757365206275726e282920696e73746561640000000000600082015250565b6000612f9a601b836127e8565b9150612fa582612f64565b602082019050919050565b60006020820190508181036000830152612fc981612f8d565b9050919050565b7f455243333437353a206e6f7420656e6f75676820626f6e6420746f207472616e60008201527f7366657200000000000000000000000000000000000000000000000000000000602082015250565b600061302c6024836127e8565b915061303782612fd0565b604082019050919050565b6000602082019050818103600083015261305b8161301f565b9050919050565b7f455243333437353a206e6f7420616c6c6f77656420616d6f756e740000000000600082015250565b6000613098601b836127e8565b91506130a382613062565b602082019050919050565b600060208201905081810360008301526130c78161308b565b905091905056fea2646970667358221220e176a9fb1c8e00809066c9057d55bb74805bffdca97279cf1cc6e8ec78ecf12364736f6c634300081c003364657461696c732061626f75742069737375616e636520616e6420726564656d7074696f6e2074696d65",
  "linkReferences": {},
  "deployedLinkReferences": {}
}